:100000000C9424010C9445010C9445010C94450179
:100010000C9445010C9445010C9445010C94450148
:100020000C9445010C9445010C9445010C94450138
:100030000C9445010C9445010C9445010C94450128
:100040000C9445010C9445010C9445010C94450118
:100050000C9445010C9445010C9445010C9420022C
:100060000C9445010C9445010C9445010C944501F8
:100070000C9445010C9445010C9445010C944501E8
:100080000C9445010C9445010C9445010C944501D8
:100090000C9445010C9445010C9445010C944501C8
:1000A0000C9445010C9445010C9445010C944501B8
:1000B0000C9445010C9445010C9445010C944501A8
:1000C0000C9445010C9445010C9445010C94450198
:1000D0000C9445010C9445010C9445010C94450188
:1000E0000C9445010C94AD010C94B1010C94C50124
:1000F0000C94A9010C9484010C949F010C94990117
:100100000C94B7010C94BF010C94C9010C948E019E
:100110000C9496010C94A3010C94BB010C94C401A3
:100120000C948A010C949201000020002300260008
:1001300029002C002F0032000001000003010601FD
:10014000090100000A0B02090C0D0E080703040147
:10015000000000000000000000000000000000009F
:10016000000000000000000000000000000012116C
:10017000100000000000000000000000000000006F
:100180000000000000000000000022002500280000
:100190002B002E003100340002010000050108018F
:1001A0000B0100002100240027002A002D00300050
:1001B000330001010000040107010A0105050505DE
:1001C000070508080808020202020A0A08080404CF
:1001D00004040101010101010101030303030303FD
:1001E0000303040707070C0C0C0C0C0C0C0C02028C
:1001F000020206060606060606060B0B0B0B0B0B89
:100200000B0B010210202008081020401020408015
:1002100002010201080402010102040810204080CA
:100220008040201008040201800402018040201058
:1002300008040201080402010102040810204080A1
:10024000010204081020408011241FBECFEFD1E22C
:10025000DEBFCDBF00E00CBF12E0A0E0B2E0E4E200
:10026000FBE000E00BBF02C007900D92A032B10787
:10027000D9F722E0A0E2B2E001C01D92A932B20794
:10028000E1F70E946A020C9490050C94000090E043
:10029000FC01EE5FFD4F249184549E4FFC0184913C
:1002A000882399F090E0880F991FFC01EE55FE4FCE
:1002B000A591B491FC01E857FE4F859194918FB7B9
:1002C000F894EC91E22BEC938FBF0895815082312A
:1002D00008F05AC0E82FF0E08827EE58FE4F8F4F05
:1002E0000C9474059201960184018A018E01C40167
:1002F00099019F01A301A901AD01B101B701BB01A2
:10030000C401BF01C501C901809180008F7780932E
:1003100080000895809180008F7DF9CF80918000CA
:10032000877FF5CF84B58F7784BD089584B58F7DA1
:10033000FBCF8091B0008F778093B00008958091BB
:10034000B0008F7DF9CF809190008F7780939000DF
:100350000895809190008F7DF9CF80919000877FE4
:10036000F5CF8091A0008F778093A00008958091B1
:10037000A0008F7DF9CF8091A000877FF5CF80917D
:1003800020018F77809320010895809120018F7D37
:10039000F9CF80912001877FF5CF1F93CF93DF9313
:1003A000282F30E0F901EE5BFE4F8491F901EE5FFA
:1003B000FD4FD491F901E454FE4FC491CC23A9F030
:1003C000162F81110E946601EC2FF0E0EE0FFF1F47
:1003D000E857FE4FA591B4918FB7F894EC911111A5
:1003E00008C0D095DE23DC938FBFDF91CF911F91A2
:1003F0000895DE2BF8CF3FB7F894809125029091B5
:100400002602A0912702B091280226B5A89B05C01C
:100410002F3F19F00196A11DB11D3FBFBA2FA92F83
:10042000982F8827BC01CD01620F711D811D911D80
:1004300042E0660F771F881F991F4A95D1F70895EC
:100440001F920F920FB60F9211242F933F938F9309
:100450009F93AF93BF938091210290912202A0912C
:100460002302B09124023091200223E0230F2D3784
:1004700058F50196A11DB11D209320028093210201
:1004800090932202A0932302B0932402809125022C
:1004900090912602A0912702B09128020196A11DF9
:1004A000B11D8093250290932602A0932702B0935A
:1004B0002802BF91AF919F918F913F912F910F9003
:1004C0000FBE0F901F90189526E8230F0296A11DCE
:1004D000B11DD2CFCF93DF93CDB7DEB7CC58D109C2
:1004E0000FB6F894DEBF0FBECDBF789484B582609E
:1004F00084BD84B5816084BD85B5826085BD85B5C8
:10050000816085BD80916E00816080936E00109245
:1005100081008091810082608093810080918100C0
:100520008160809381008091800081608093800051
:100530008091B10084608093B1008091B0008160AF
:100540008093B000809191008260809391008091AF
:1005500091008160809391008091900081608093F0
:1005600090008091A10082608093A1008091A10001
:1005700081608093A1008091A00081608093A000A1
:10058000809121018260809321018091210181600D
:1005900080932101809120018160809320018091CE
:1005A0007A00846080937A0080917A0082608093E0
:1005B0007A0080917A00816080937A0080917A003D
:1005C000806880937A001092C10040E0E42E42E0FF
:1005D000F42E00E112E0F80180810E5F1F4F0E94AF
:1005E0004701F7018081F2E0EF0EF11C0E94470104
:1005F00022E00032120779F710E061E0812F0E94BB
:10060000CD011F5F1830C9F717E0E12EF12C10E083
:1006100000E089E4682E81E0782E99E0C92E92E00E
:10062000D92E23ECA22E21E0B22E88248394912C83
:10063000F301EE19FF098491F601EE19FF095490B8
:10064000F501EE19FF09449041102AC2C4010E2C95
:1006500002C0880F991F0A94E2F7080F191F81E062
:10066000E81AF10828F7C80164E670E00E94600506
:100670009C01EAE0F0E0BF010E9460057C01C90135
:100680008E199F09BF010E9460055B014E01EDE0DC
:100690008E0E911C80E8F40111928A95E9F74DE3E2
:1006A00050E05A8349832CE330E03C832B838BE377
:1006B00090E09E838D83EAE3F0E0F887EF83A9E37F
:1006C000CA2ED12CDA86C986A8E3B0E0BC87AB87F6
:1006D000988B8F873A8B298B5E8F4D8F38A32F8F06
:1006E00067E370E07AA369A3DCA2CBA2FEA3EDA32B
:1006F0005CA74BA73EA72DA798AB8FA7FAABE9AB9A
:100700007CAB6BAB3AAF29AF9CAF8BAF7EAF6DAF1D
:100710002196BFAFAEAF219729965FAF4EAF299715
:100720002B969FAF8EAF2B972D96FFAFEEAF2D97E9
:100730002F967FAF6EAF2F976196BFAFAEAF619729
:1007400067965FAF4EAF679769969FAF8EAF699719
:100750006B96FFAFEEAF6B976D96DFAECEAE6D973B
:100760006F96BFAFAEAF6F97A1967FAF6EAFA197F9
:10077000A5965FAF4EAFA597A7963FAF2EAFA797B1
:10078000A9969FAF8EAFA997E3965FAF4EAFE39761
:10079000E5963FAF2EAFE597E7969FAF8EAFE79711
:1007A000E996FFAFEEAFE997EB96DFAECEAEEB97F3
:1007B000ED96BFAFAEAFED97EF967FAF6EAFEF9711
:1007C000C158DF4F59834883CF57D040CF57DF4FB1
:1007D00039832883C158D040CD57DF4F9983888310
:1007E000C358D040CB57DF4FF983E883C558D0407A
:1007F000C957DF4FB983A883C758D040C757DF4FC9
:1008000079836883C958D0408EE08E9D60018F9DAA
:10081000D00C1124F12CE12CF701EE0FFF1FEC0D91
:10082000FD1D81E090E08C0F9D1FE80FF91F61E036
:1008300080810E94CD019FEFE91AF90AE7E0EE16E8
:10084000F10451F780E8F40111928A95E9F745E443
:1008500050E05A83498324E430E03C832B83E2E474
:10086000F0E0FE83ED8383E490E098878F8361E47A
:10087000E62EF12CFA86E986A0E4B0E0BC87AB87CF
:10088000388B2F879A8B898B5E8F4D8F38A32F8F54
:100890006FE370E07AA369A3FCA2EBA2FEA3EDA331
:1008A0005CA74BA73EA72DA798AB8FA7FAABE9ABE8
:1008B0007CAB6BABBAAFA9AF7CAF6BAF3EAF2DAF2C
:1008C00021969FAF8EAF219729965FAF4EAF2997A4
:1008D0002B96BFAFAEAF2B972D967FAF6EAF2D97F8
:1008E0002F969FAF8EAF2F976196FFAFEEAF6197B8
:1008F00067965FAF4EAF67976996BFAFAEAF699728
:100900006B96FFAEEEAE6B976D96FFAFEEAF6D9749
:100910006F969FAF8EAF6F97A1967FAF6EAFA19787
:10092000A5965FAF4EAFA597A7963FAF2EAFA797FF
:10093000A9969FAF8EAFA997E3965FAF4EAFE397AF
:10094000E5963FAF2EAFE597E7969FAF8EAFE7975F
:10095000E996FFAFEEAFE997EB96FFAEEEAEEB9701
:10096000ED96BFAFAEAFED97EF967FAF6EAFEF975F
:10097000C158DF4F59834883CF57D040CF57DF4FFF
:1009800039832883C158D040CD57DF4F998388835E
:10099000C358D040CB57DF4FF983E883C558D040C8
:1009A000C957DF4FB983A883C758D040C757DF4F17
:1009B00079836883C958D0408EE08A9D60018B9D01
:1009C000D00C1124F12CE12CF701EE0FFF1FEC0DE0
:1009D000FD1D81E090E08C0F9D1FE80FF91F61E085
:1009E00080810E94CD019FEFE91AF90AE7E0EE1637
:1009F000F10451F761E0AB2809F460E08EE30E9456
:100A0000CD0161E000FF60E086E30E94CD010E941D
:100A1000FB014B015C0124EFC22EDD24D394E12CB9
:100A2000F12C0E94FB01681979098A099B09683E2B
:100A3000734081059105A8F3F1E0CF1AD108E108D0
:100A4000F10828EE820E23E0921EA11CB11CC114F5
:100A5000D104E104F10429F78EE1C82E82E0D82EFA
:100A600090E0E92E92E0F92E00E112E0F801808199
:100A70000E5F1F4F60E00E94CD01F7018081F2E020
:100A8000EF0EF11C60E00E94CD01C016D10671F797
:100A900080E090E0892B09F4B7CD0E940000B4CD2E
:100AA00081110E946601E42DF0E0EE0FFF1FE85D6A
:100AB000FE4FA591B491EC915E2209F4C7CDCFCD44
:100AC00097FB072E16F4009407D077FD09D00E94FB
:100AD0007C0507FC05D03EF4909581959F4F0895C5
:100AE000709561957F4F0895EE0FFF1F881F8BBF94
:100AF0000790F691E02D1994AA1BBB1B51E107C08A
:100B0000AA1FBB1FA617B70710F0A61BB70B881F9D
:100B1000991F5A95A9F780959095BC01CD0108952C
:040B2000F894FFCF77
:100B24003D003C003B003A003900380037003600F5
:100B34004500440043004200410040003F003E00A5
:00000001FF
