:100000000C9418010C9439010C9439010C943901A9
:100010000C9439010C9439010C9439010C94390178
:100020000C9439010C9439010C9439010C94390168
:100030000C9439010C944C020C9439010C94390144
:100040000C9439010C9439010C9439010C94390148
:100050000C9439010C9439010C9439010C94EB0285
:100060000C9439010C9439010C9439010C94390128
:100070000C9439010C9439010C9439010C94390118
:100080000C9439010C9439010C9439010C94390108
:100090000C9439010C9439010C9439010C943901F8
:1000A0000C9439010C9439010C9439010C943901E8
:1000B0000C9439010C9439010C9439010C943901D8
:1000C0000C9439010C9439010C9439010C943901C8
:1000D0000C9439010C9439010C9439010C943901B8
:1000E0000C9439010C94AD010C94E0010C94C40102
:1000F0000C94C0010C94C8010C94B0010C94DC0168
:100100000C94D2010C94A5010C948A010C94A101C9
:100110000C94B6010C94CE010C94D6010C94BA0147
:100120000C948F010C94A90100000A0B02090C0D1C
:100130000E0807030401000000000000000000009A
:1001400000000000000000000000000000000000AF
:10015000000000001211100000000000000000006C
:10016000000000000000000000000000000002008D
:10017000002200250028002B002E00310034000250
:10018000010000050108010B0100002100240027E7
:10019000002A002D00300033000101000004010797
:1001A000010A0105050505070508080808020202FD
:1001B000020A0A0808040404040101010101010102
:1001C000010303030303030303040707070C0C0CD9
:1001D0000C0C0C0C0C0202020206060606060606B1
:1001E000060B0B0B0B0B0B0B0B010210202008084E
:1001F0001020401020408002010201080402010189
:100200000204081020408080402010080402018071
:1002100004020180402010080402010804020101C8
:1002200002040810204080010204081020408000D1
:1002300011241FBECFEFD1E2DEBFCDBF00E00CBF67
:1002400012E0A0E0B2E0E0EAFDE000E00BBF02C097
:1002500007900D92A631B107D9F722E0A6E1B2E0EE
:1002600001C01D92A534B207E1F70E9435030C943A
:10027000CE060C94000090E0FC01E751FE4F249163
:100280008D559E4FFC018491882399F090E0880F52
:10029000991FFC01E757FE4FA591B491FC01E1596C
:1002A000FE4F859194918FB7F894EC91E22BEC93EB
:1002B0008FBF0895282F30E0F901E85DFE4F94913B
:1002C000F901E751FE4F44912D553E4FF90124911C
:1002D000222309F435C0992311F191509231F8F499
:1002E000E92FF0E08827E858FE4F8F4F0C94AB06BB
:1002F000A901AD018A01A101A5018F01B001B601DB
:10030000BA01C001C401C801CE01D2018F01D601DA
:10031000DC01E001809180008F7780938000E22FE4
:10032000F0E0EE0FFF1FE159FE4FA591B4918FB79A
:10033000F894EC91611148C040954E234C938FBFC7
:100340000895809180008F7DE8CF80918000877F25
:10035000E4CF84B58F7784BDE2CF84B58F7DFBCFAA
:100360008091B0008F778093B000D9CF8091B0009A
:100370008F7DF9CF809190008F7780939000CFCFC1
:10038000809190008F7DF9CF80919000877FF5CF8D
:100390008091A0008F778093A000C1CF8091A000B2
:1003A0008F7DF9CF8091A000877FF5CF80912001CC
:1003B0008F7780932001B3CF809120018F7DF9CF7B
:1003C00080912001877FF5CF4E2BB8CF3FB7F894AF
:1003D00080911B0290911C02A0911D02B0911E02FF
:1003E00026B5A89B05C02F3F19F00196A11DB11D90
:1003F0003FBFBA2FA92F982F8827BC01CD01620FCC
:10040000711D811D911D42E0660F771F881F991F86
:100410004A95D1F708950F931F93CF93C82F8B015F
:1004200061E00E945A0128EE33E0D8010E94B30631
:1004300024EB30E040E050E00E9447062C573C4F50
:100440004F4F5F4F2230310548F0220F331F220FEC
:10045000331F25503109C9010197F1F760E08C2F56
:10046000CF911F910F910C945A01CF93DF93D82F06
:10047000C8E06D2F617086E30E945A01D69561E055
:1004800088E30E945A0160E088E30E945A01C1504B
:1004900081F7DF91CF9108951F920F920FB60F92BF
:1004A00011240BB60F922F933F934F935F936F934B
:1004B0007F938F939F93AF93BF93EF93FF9380911D
:1004C000330290913402A0913502B0913602892B0B
:1004D0008A2B8B2BE1F190912202E0912302F09183
:1004E0002402808189278083809133029091340295
:1004F000A0913502B0913602181619061A061B068D
:100500009CF48091330290913402A0913502B09115
:1005100036020197A109B109809333029093340206
:10052000A0933502B0933602FF91EF91BF91AF9146
:100530009F918F917F916F915F914F913F912F91FB
:100540000F900BBE0F900FBE0F901F9018958091CB
:100550000002EEE6F1E0E4919FEF90930002E230BA
:10056000E9F040F4EE2389F0E13091F060E00E9480
:100570005A01DACFE43049F110F1E530B9F7909142
:1005800073009D7F90937300F1CF10926E00EECFB9
:1005900090916F009D7F90936F00E8CF90917000D5
:1005A0009D7F9093700091E09093B0009091B10086
:1005B000987F94609093B1001092B300D7CF909140
:1005C00071009D7F90937100D1CF909172009D7FBB
:1005D00090937200CBCF1F920F920FB60F921124FF
:1005E0002F933F938F939F93AF93BF938091170265
:1005F00090911802A0911902B0911A02309116023E
:1006000023E0230F2D3758F50196A11DB11D20932E
:1006100016028093170290931802A0931902B093C8
:100620001A0280911B0290911C02A0911D02B091B0
:100630001E020196A11DB11D80931B0290931C0206
:10064000A0931D02B0931E02BF91AF919F918F9115
:100650003F912F910F900FBE0F901F90189526E895
:10066000230F0296A11DB11DD2CF789484B582606C
:1006700084BD84B5816084BD85B5826085BD85B546
:10068000816085BD80916E00816080936E001092C4
:10069000810080918100826080938100809181003F
:1006A00081608093810080918000816080938000D0
:1006B0008091B10084608093B1008091B00081602E
:1006C0008093B0008091910082608093910080912E
:1006D000910081608093910080919000816080936F
:1006E00090008091A10082608093A1008091A10080
:1006F00081608093A1008091A00081608093A00020
:10070000809121018260809321018091210181608B
:10071000809321018091200181608093200180914C
:100720007A00846080937A0080917A00826080935E
:100730007A0080917A00816080937A0080917A00BB
:10074000806880937A001092C10085E00E943B018E
:1007500086E00E943B0187E00E943B0187E20E9405
:100760003B0186E30E943B0187E30E943B0188E353
:100770000E943B0170E060E085E090E00E940B0287
:1007800070E060E086E090E00E940B0270E060E0C4
:1007900087E090E00E940B020FE31FE120E1222E90
:1007A00022E0322E38ECC32ED12CE12CF12CC0915A
:1007B0004302D09144022196D0934402C093430255
:1007C00024EB30E0DE010E94B3062BE330E040E092
:1007D00050E00E944706B90185E090E00E940B02BC
:1007E000EC9709F0C8C180910002873229F5EEE646
:1007F000F1E0C491C7FD7DC187E20E943B01CC239B
:1008000009F4F0C0C23009F001C18091B100887FC5
:1008100083608093B10089EF8093B300C09233026C
:10082000D0923402E0923502F0923602809170004C
:100830008260809370005DC18F3F09F05AC187E2EA
:1008400080930002EEE6F1E0C4918C2FCF3F09F4D3
:1008500050C1C23009F467C058F4CC2371F1C130E3
:1008600009F443C087FD45C187E20E943B01CACF1E
:10087000C43009F499C008F478C0C53099F71092D3
:100880002001109221018091210188608093210133
:1008900080912101816080932101EAECF1E0849153
:1008A000E82FF0E0EE0FFF1FE159FE4F8591949184
:1008B000F101849180931F029FCF14BC15BC84B5B5
:1008C000826084BD85B5816085BDEAECF1E08491EC
:1008D000E82FF0E0EE0FFF1FE159FE4F8591949154
:1008E000F10184918093260287CF109280001092AC
:1008F00081008091810088608093810080918100D7
:10090000816080938100EAECF1E08491E82FF0E0CF
:10091000EE0FFF1FE159FE4F85919491F1018491F3
:100920008093250269CF1092B0001092B10080919F
:10093000B00082608093B0008091B10081608093AC
:10094000B100EAECF1E08491E82FF0E0EE0FFF1F38
:10095000E159FE4F85919491909324028093230254
:10096000F10184918093220247CF1092900010925F
:100970009100809191008860809391008091910016
:10098000816080939100EAECF1E08491E82FF0E03F
:10099000EE0FFF1FE159FE4F85919491F101849173
:1009A00080932102C3E028CF1092A0001092A100F2
:1009B0008091A10088608093A1008091A100816056
:1009C0008093A100EAECF1E08491E82FF0E0EE0FD3
:1009D000FF1FE159FE4F85919491F101849180931D
:1009E00020020ACF85B5887F836085BD8CE787BDEF
:1009F000C0923B02D0923C02E0923D02F0923E0255
:100A000080916E00826080936E0073C0C130C1F42B
:100A100080918100887F816080938100109389009C
:100A200000938800C0923702D0923802E0923902D7
:100A3000F0923A0280916F00826080936F0059C0FB
:100A4000C330C1F480919100887F816080939100D0
:100A50001093990000939800C0922F02D092300218
:100A6000E0923102F09232028091710082608093B4
:100A700071003FC0C430C1F48091A100887F8160C3
:100A80008093A1001093A9000093A800C0922B02AC
:100A9000D0922C02E0922D02F0922E0280917200F0
:100AA00082608093720025C0C530C1F4809121011D
:100AB000887F816080932101109329010093280190
:100AC000C0922702D0922802E0922902F0922A02D4
:100AD000809173008260809373000BC0C23009F470
:100AE000D4C00CF0C7C0CC2309F4CDC0C13009F488
:100AF00095CF1092440210924302C0914102D091CE
:100B000042022196D0934202C093410224EB30E08E
:100B1000DE010E94B3062BE330E040E050E00E948B
:100B20004706B90186E090E00E940B02EC9719F5A8
:100B30001092420210924102C0913F02D0914002B5
:100B40002196D0934002C0933F0224EB30E0DE01B7
:100B50000E94B3062BE030E040E050E00E944706E0
:100B6000B90187E090E00E940B022C9721F41092CB
:100B7000400210923F02C0914302D0914402809003
:100B8000410290904202A0903F02B090400260E08B
:100B900087E30E945A01CE016AE070E00E94970646
:100BA000EB01FC01EE0FFF1FEF5FFD4F80810E9404
:100BB0003502CC0FDD1FCF5FDD4F88810E943502EB
:100BC000C4016AE070E00E949706EB01FC01EE0FA1
:100BD000FF1FEF5FFD4F80810E943502CC0FDD1FAC
:100BE000CF5FDD4F88810E943502C5016AE070E069
:100BF0000E949706EB01FC01EE0FFF1FEF5FFD4F18
:100C000080810E943502CC0FDD1FCF5FDD4F8881D0
:100C10000E94350261E087E30E945A010E94E601CA
:100C20002B013C0164E6862E912CA12CB12C0E9454
:100C3000E6016419750986099709683E73408105C4
:100C40009105A8F3F1E08F1A9108A108B10828EEE8
:100C5000420E23E0521E611C711C81149104A104F8
:100C6000B10429F780E090E0892B09F4A0CD0E941F
:100C700000009DCDC43009F405CF0CF4E9CEC53099
:100C800009F41ACF36CF8FE3B2CE8FE3C5CD052E50
:100C900097FB1EF400940E945E0657FD07D00E9449
:100CA000660607FC03D04EF40C945E065095409502
:100CB000309521953F4F4F4F5F4F08959095809508
:100CC000709561957F4F8F4F9F4F0895A1E21A2E27
:100CD000AA1BBB1BFD010DC0AA1FBB1FEE1FFF1FE0
:100CE000A217B307E407F50720F0A21BB30BE40B30
:100CF000F50B661F771F881F991F1A9469F7609577
:100D00007095809590959B01AC01BD01CF01089530
:100D1000A29FB001B39FC001A39F700D811D11243C
:100D2000911DB29F700D811D1124911D089597FB97
:100D3000072E16F4009407D077FD09D00E94BA065A
:100D400007FC05D03EF4909581959F4F08957095CE
:100D500061957F4F0895EE0FFF1F881F8BBF07908F
:100D6000F691E02D19940E948806B7FF0895821B22
:100D7000930B0895AA1BBB1B51E107C0AA1FBB1F01
:100D8000A617B70710F0A61BB70B881F991F5A9517
:100D9000A9F780959095BC01CD010895F894FFCFF7
:100DA000FF01004F00120006004C00240020000F3D
:060DB00000000004000039
:00000001FF
