:100000000C9418010C9439010C9439010C943901A9
:100010000C9439010C9439010C9439010C94390178
:100020000C9439010C9439010C9439010C94390168
:100030000C9439010C9471020C9439010C9439011F
:100040000C9439010C9439010C9439010C94390148
:100050000C9439010C9439010C9439010C9410035F
:100060000C9439010C9439010C9439010C94390128
:100070000C9439010C9439010C9439010C94390118
:100080000C9439010C9439010C9439010C94390108
:100090000C9439010C9439010C9439010C943901F8
:1000A0000C9439010C9439010C9439010C943901E8
:1000B0000C9439010C9439010C9439010C943901D8
:1000C0000C9439010C9439010C9439010C943901C8
:1000D0000C9439010C9439010C9439010C943901B8
:1000E0000C9439010C94A1010C948F010C94A5017E
:1000F0000C94C8010C94CE010C94E0010C94C00146
:100100000C94C4010C94DC010C948A010C94D6016B
:100110000C94AD010C94A9010C94B0010C94BA019B
:100120000C94B6010C94D20100000A0B02090C0DCC
:100130000E0807030401000000000000000000009A
:1001400000000000000000000000000000000000AF
:10015000000000001211100000000000000000006C
:10016000000000000000000000000000000002008D
:10017000002200250028002B002E00310034000250
:10018000010000050108010B0100002100240027E7
:10019000002A002D00300033000101000004010797
:1001A000010A0105050505070508080808020202FD
:1001B000020A0A0808040404040101010101010102
:1001C000010303030303030303040707070C0C0CD9
:1001D0000C0C0C0C0C0202020206060606060606B1
:1001E000060B0B0B0B0B0B0B0B010210202008084E
:1001F0001020401020408002010201080402010189
:100200000204081020408080402010080402018071
:1002100004020180402010080402010804020101C8
:1002200002040810204080010204081020408000D1
:1002300011241FBECFEFD1E2DEBFCDBF00E00CBF67
:1002400012E0A0E0B2E0ECE6FEE000E00BBF02C08E
:1002500007900D92AE34B107D9F722E0AEE4B2E0D8
:1002600001C01D92AD37B207E1F70E945A030C940A
:1002700034070C94000090E0FC01E751FE4F2491FC
:100280008D559E4FFC018491882399F090E0880F52
:10029000991FFC01E757FE4FA591B491FC01E1596C
:1002A000FE4F859194918FB7F894EC91E22BEC93EB
:1002B0008FBF0895282F30E0F901E85DFE4F94913B
:1002C000F901E751FE4F44912D553E4FF90124911C
:1002D000222309F435C0992311F191509231F8F499
:1002E000E92FF0E08827E858FE4F8F4F0C94110754
:1002F000A901AD018A01A101A5018F01B001B601DB
:10030000BA01C001C401C801CE01D2018F01D601DA
:10031000DC01E001809180008F7780938000E22FE4
:10032000F0E0EE0FFF1FE159FE4FA591B4918FB79A
:10033000F894EC91611148C040954E234C938FBFC7
:100340000895809180008F7DE8CF80918000877F25
:10035000E4CF84B58F7784BDE2CF84B58F7DFBCFAA
:100360008091B0008F778093B000D9CF8091B0009A
:100370008F7DF9CF809190008F7780939000CFCFC1
:10038000809190008F7DF9CF80919000877FF5CF8D
:100390008091A0008F778093A000C1CF8091A000B2
:1003A0008F7DF9CF8091A000877FF5CF80912001CC
:1003B0008F7780932001B3CF809120018F7DF9CF7B
:1003C00080912001877FF5CF4E2BB8CF3FB7F894AF
:1003D0008091530290915402A0915502B09156021F
:1003E00026B5A89B05C02F3F19F00196A11DB11D90
:1003F0003FBFBA2FA92F982F8827BC01CD01620FCC
:10040000711D811D911D42E0660F771F881F991F86
:100410004A95D1F70895EF92FF920F931F93CF93D0
:10042000DF93EB0123E0CC0FDD1F2A95E1F7CF5FCF
:10043000DD4F8C017C0188E0E80EF11C688122967A
:10044000F80180810E5F1F4F0E945A010E151F0593
:10045000A9F7DF91CF911F910F91FF90EF90089531
:100460000F931F93CF93C82F8B0161E00E945A0115
:1004700028EE33E0D8010E94190724EB30E040E079
:1004800050E00E94AD062C573C4F4F4F5F4F22303B
:10049000310548F0220F331F220F331F2550310939
:1004A000C9010197F1F760E08C2FCF911F910F9157
:1004B0000C945A01CF93DF93D82FC8E06D2F617051
:1004C00086E30E945A01D69561E088E30E945A01B2
:1004D00060E088E30E945A01C15081F7DF91CF911B
:1004E00008951F920F920FB60F9211240BB60F9220
:1004F0002F933F934F935F936F937F938F939F932C
:10050000AF93BF93EF93FF9380916B0290916C0236
:10051000A0916D02B0916E02892B8A2B8B2BE1F199
:1005200090915A02E0915B02F0915C0280818927F0
:10053000808380916B0290916C02A0916D02B091CA
:100540006E02181619061A061B069CF480916B029F
:1005500090916C02A0916D02B0916E020197A10979
:10056000B10980936B0290936C02A0936D02B093DB
:100570006E02FF91EF91BF91AF919F918F917F910B
:100580006F915F914F913F912F910F900BBE0F9004
:100590000FBE0F901F90189580910002EEE6F1E0DB
:1005A000E4919FEF90930002E230E9F040F4EE23F3
:1005B00089F0E13091F060E00E945A01DACFE43036
:1005C00049F110F1E530B9F7909173009D7F909358
:1005D0007300F1CF10926E00EECF90916F009D7F6F
:1005E00090936F00E8CF909170009D7F9093700082
:1005F00091E09093B0009091B100987F94609093B7
:10060000B1001092B300D7CF909171009D7F90936D
:100610007100D1CF909172009D7F90937200CBCFEB
:100620001F920F920FB60F9211242F933F938F9327
:100630009F93AF93BF9380914F0290915002A091EE
:100640005102B091520230914E0223E0230F2D3718
:1006500058F50196A11DB11D20934E0280934F02C3
:1006600090935002A0935102B09352028091530292
:1006700090915402A0915502B09156020196A11D8D
:10068000B11D8093530290935402A0935502B093EE
:100690005602BF91AF919F918F913F912F910F90F3
:1006A0000FBE0F901F90189526E8230F0296A11DEC
:1006B000B11DD2CFCF93DF9300D01F92CDB7DEB75D
:1006C000789484B5826084BD84B5816084BD85B52D
:1006D000826085BD85B5816085BD80916E00816039
:1006E00080936E00109281008091810082608093DF
:1006F00081008091810081608093810080918000E1
:100700008160809380008091B10084608093B1000B
:100710008091B00081608093B000809191008260F0
:1007200080939100809191008160809391008091ED
:1007300090008160809390008091A10082608093FE
:10074000A1008091A10081608093A1008091A00010
:1007500081608093A00080912101826080932101BB
:10076000809121018160809321018091200181602D
:100770008093200180917A00846080937A00809138
:100780007A00826080937A0080917A008160809301
:100790007A0080917A00806880937A001092C1007C
:1007A00085E00E943B0186E00E943B0187E00E94B9
:1007B0003B0187E20E943B0186E30E943B0187E305
:1007C0000E943B0188E30E943B0170E060E085E00D
:1007D00090E00E94300270E060E086E090E00E94CD
:1007E000300270E060E087E090E00E9430024BE36E
:1007F000442E512C612C712C5FE3252E5FE1352EA8
:1008000068ECC62ED12CE12CF12C0AE010E080918E
:100810007B0290917C0201969A83898390937C025B
:1008200080937B0224EB30E0DC010E941907A301D6
:1008300092010E94AD06B90185E090E00E9430026D
:10084000E981FA81FC9709F0E3C1809100028732C7
:1008500029F5EEE6F1E0B490B7FC92C187E20E9480
:100860003B01BB2009F4FEC0F2E0BF120FC1809132
:10087000B100887F83608093B10089EF8093B300DB
:10088000C0926B02D0926C02E0926D02F0926E0206
:100890008091700082608093700072C18F3F09F078
:1008A0006FC187E280930002EEE6F1E0B4908B2DF9
:1008B000FFEFBF1609F464C122E0B21609F46FC05D
:1008C0002B1560F0BB2099F191E0B91609F448C0EE
:1008D00087FD56C187E20E943B01C6CFE4E0BE1609
:1008E00009F4A1C0BE1608F47DC0F5E0BF12F0CF38
:1008F0001092200110922101809121018860809343
:10090000210180912101816080932101EAECF1E0D5
:100910008491E82FF0E0EE0FFF1FE159FE4F859123
:100920009491E0E1F2E084918093570297CF14BC58
:1009300015BC84B5826084BD85B5816085BDEAEC57
:10094000F1E08491E82FF0E0EE0FFF1FE159FE4F38
:1009500085919491E0E1F2E0849180935E027ECFF4
:1009600010928000109281008091810088608093B5
:10097000810080918100816080938100EAECF1E048
:100980008491E82FF0E0EE0FFF1FE159FE4F8591B3
:100990009491E0E1F2E0849180935D025FCF109248
:1009A000B0001092B1008091B00082608093B000DE
:1009B0008091B10081608093B100EAECF1E0849114
:1009C000E82FF0E0EE0FFF1FE159FE4F8591949163
:1009D00090935C0280935B02E0E1F2E0849180936B
:1009E0005A023CCF10929000109291008091910099
:1009F0008860809391008091910081608093910044
:100A0000EAECF1E08491E82FF0E0EE0FFF1FE159EE
:100A1000FE4F85919491E0E1F2E084918093590238
:100A200083E0B82E1BCF1092A0001092A1008091FD
:100A3000A10088608093A1008091A10081608093D3
:100A4000A100EAECF1E08491E82FF0E0EE0FFF1F47
:100A5000E159FE4F85919491E0E1F2E08491809319
:100A60005802FCCE85B5887F836085BD8CE787BD45
:100A7000C0927302D0927402E0927502F0927602F4
:100A800080916E00826080936E007AC021E0B21285
:100A900018C080918100887F8160809381003092AE
:100AA000890020928800C0926F02D0927002E0927A
:100AB0007102F092720280916F00826080936F00E9
:100AC0005FC083E0B81218C080919100887F816078
:100AD000809391003092990020929800C092670212
:100AE000D0926802E0926902F0926A0280917100ED
:100AF00082608093710044C094E0B91218C0809164
:100B0000A100887F81608093A1003092A90020928B
:100B1000A800C0926302D0926402E0926502F09253
:100B200066028091720082608093720029C0E5E0C5
:100B3000BE1218C080912101887F816080932101BD
:100B40003092290120922801C0925F02D092600267
:100B5000E0926102F0926202809173008260809361
:100B600073000EC0F2E0BF1609F4F5C0FB150CF4DB
:100B7000E4C0BB2009F4EDC021E0B21609F48FCF28
:100B800010927C0210927B02E0917902F0917A023D
:100B90003196FA83E983F0937A02E093790224EBA9
:100BA00030E0DF010E941907A30192010E94AD0607
:100BB000B90186E090E00E94300289819A81CC9749
:100BC00039F510927A0210927902E0917702F09151
:100BD00078023196FA83E983F0937802E093770202
:100BE00024EB30E0DF010E9419072BE030E040E009
:100BF00050E00E94AD06B90187E090E00E9430020B
:100C000089819A810C9721F41092780210927702D0
:100C1000A0907B02B0907C02E0917902F0917A0280
:100C2000FA83E983809077029090780260E087E30E
:100C30000E945A01C501B8010E94FD067C836B83A6
:100C4000FC01EE0FFF1FEF5DFD4F80810E945A02F5
:100C50008B819C81880F991F8F5D9D4FFC01808146
:100C60000E945A0289819A81B8010E94FD067C8304
:100C70006B83FC01EE0FFF1FEF5DFD4F80810E9433
:100C80005A028B819C81880F991F8F5D9D4FFC01BB
:100C900080810E945A02C401B8010E94FD067C8333
:100CA0006B83FC01EE0FFF1FEF5DFD4F80810E9403
:100CB0005A028B819C81880F991F8F5D9D4FFC018B
:100CC00080810E945A0261E087E30E945A01C501B7
:100CD00064E070E00E94FD06BC0185E492E00E94A1
:100CE0000B0289819A8164E070E00E94FD06BC01DC
:100CF0008DE392E00E940B02C40164E070E00E9468
:100D0000FD06BC0185E392E00E940B020E94E60111
:100D10004B015C010E94E601681979098A099B0967
:100D2000683E734081059105A8F380E090E0892B2F
:100D300009F46DCD0E94000068CD84E0B81609F476
:100D4000E4CEB8160CF4C6CE95E0B91609F4F8CE88
:100D500017CF8FE38CCE8FE391CD052E97FB1EF43A
:100D600000940E94C40657FD07D00E94CC0607FCE1
:100D700003D04EF40C94C4065095409530952195BF
:100D80003F4F4F4F5F4F08959095809570956195B7
:100D90007F4F8F4F9F4F0895A1E21A2EAA1BBB1BB6
:100DA000FD010DC0AA1FBB1FEE1FFF1FA217B30737
:100DB000E407F50720F0A21BB30BE40BF50B661F4D
:100DC000771F881F991F1A9469F760957095809511
:100DD00090959B01AC01BD01CF010895A29FB00188
:100DE000B39FC001A39F700D811D1124911DB29F5F
:100DF000700D811D1124911D089597FB072E16F487
:100E0000009407D077FD09D00E94200707FC05D089
:100E10003EF4909581959F4F0895709561957F4F11
:100E20000895EE0FFF1F881F8BBF0790F691E02DEE
:100E300019940E94EE06B7FF0895821B930B089544
:100E4000AA1BBB1B51E107C0AA1FBB1FA617B707F0
:100E500010F0A61BB70B881F991F5A95A9F780950C
:0C0E60009095BC01CD010895F894FFCFDF
:100E6C00FF01000100000000000000000000000075
:100E7C000000000000010001000000000000000064
:100E8C000001004F00120006004C00240020000F4F
:100E9C0000000004000A000B000C000D000F000EF7
:0E0EAC000008000900130012001100100000E1
:00000001FF
