:100000000C9424010C9438010C9438010C943801A0
:100010000C9438010C9438010C9438010C9438017C
:100020000C9438010C9438010C9438010C9438016C
:100030000C9438010C9438010C9438010C9438015C
:100040000C9438010C9438010C9438010C9438014C
:100050000C9438010C9438010C9438010C945B0218
:100060000C9438010C9438010C9438010C9438012C
:100070000C9438010C9438010C9438010C9438011C
:100080000C9438010C9438010C9438010C9438010C
:100090000C9438010C9438010C9438010C943801FC
:1000A0000C9438010C9438010C9438010C943801EC
:1000B0000C9438010C9438010C9438010C943801DC
:1000C0000C9438010C9438010C9438010C943801CC
:1000D0000C9438010C9438010C9438010C943801BC
:1000E0000C9438010C948F010C949D010C946A01BE
:1000F0000C9473010C9462010C945E010C949901B0
:100100000C9458010C9498010C946D010C94770197
:100110000C9485010C9493010C948B010C947D013B
:100120000C9466010C94810100002100240027003A
:100130002A002D00300033000101000004010701F6
:100140000A0100002200250028002B002E003100AB
:10015000340002010000050108010B01000020002D
:100160002300260029002C002F003200000100008F
:10017000030106010901050505050705080808082A
:10018000020202020A0A080804040404010101012F
:10019000010101010303030303030303040707072A
:1001A0000C0C0C0C0C0C0C0C0202020206060606CF
:1001B000060606060B0B0B0B0B0B0B0B010210209C
:1001C000200808102040102040800201020108048D
:1001D0000201010204081020408080402010080421
:1001E000020180040201804020100804020108047A
:1001F00002010102040810204080010204081020BE
:10020000408000000A0B02090C0D0E0807030401D0
:1002100000000000000000000000000000000000DE
:1002200000000000000000000000000000001211AB
:1002300010000000000000000000000000000000AE
:10024000000000000000000011241FBECFEFD1E22B
:10025000DEBFCDBF00E00CBF22E0A0E0B2E001C0F5
:100260001D92A930B207E1F70E94A5020C94FE038B
:100270000C9400008150823108F05AC0E82FF0E061
:100280008827EA5BFE4F8F4F0C94F60366016A01E4
:1002900058015E01620198016D01730177017D01D2
:1002A000810185018B018F019801930199019D01C5
:1002B000809180008F7780938000089580918000E6
:1002C0008F7DF9CF80918000877FF5CF84B58F77C0
:1002D00084BD089584B58F7DFBCF8091B0008F776A
:1002E0008093B00008958091B0008F7DF9CF809108
:1002F00090008F77809390000895809190008F7D7B
:10030000F9CF80919000877FF5CF8091A0008F7703
:100310008093A00008958091A0008F7DF9CF8091F7
:10032000A000877FF5CF809120018F7780932001F7
:100330000895809120018F7DF9CF80912001877FE2
:10034000F5CF1F93CF93DF93282F30E0F901EE5FB5
:10035000FD4F8491F901E454FE4FD491F901EA581C
:10036000FE4FC491CC23A9F0162F81110E943A01AF
:10037000EC2FF0E0EE0FFF1FEE5BFE4FA591B49166
:100380008FB7F894EC91111108C0D095DE23DC935F
:100390008FBFDF91CF911F910895DE2BF8CFCF93C0
:1003A000DF9390E0FC01E454FE4F24918A589E4F65
:1003B000FC0184918823D1F090E0880F991FFC0103
:1003C000E85DFE4FA591B491FC01EE5BFE4FC59137
:1003D000D49161110EC09FB7F8948C91E22FE095F3
:1003E0008E238C932881E223E8839FBFDF91CF91F6
:1003F00008958FB7F894EC91E22BEC938FBFF6CF72
:100400003FB7F8948091050290910602A0910702EF
:10041000B091080226B5A89B05C02F3F19F00196A0
:10042000A11DB11D3FBFBA2FA92F982F8827BC014E
:10043000CD01620F711D811D911D42E0660F771F76
:10044000881F991F4A95D1F708958F929F92AF9276
:10045000BF92CF92DF92EF92FF924B015C010E941C
:1004600000026B017C010E9400026C197D098E095B
:100470009F09683E734081059105A8F321E0821A27
:100480009108A108B10888EEC80E83E0D81EE11CCF
:10049000F11C81149104A104B10429F7FF90EF909D
:1004A000DF90CF90BF90AF909F908F90089560E0C5
:1004B00088E30C94A1011F920F920FB60F921124A2
:1004C0002F933F938F939F93AF93BF93809101029C
:1004D00090910202A0910302B091040230910002B7
:1004E00023E0230F2D3758F50196A11DB11D209350
:1004F00000028093010290930202A0930302B09342
:1005000004028091050290910602A0910702B09129
:1005100008020196A11DB11D809305029093060269
:10052000A0930702B0930802BF91AF919F918F9162
:100530003F912F910F900FBE0F901F90189526E8B6
:10054000230F0296A11DB11DD2CF789484B582608D
:1005500084BD84B5816084BD85B5826085BD85B567
:10056000816085BD80916E00816080936E001092E5
:100570008100809181008260809381008091810060
:1005800081608093810080918000816080938000F1
:100590008091B10084608093B1008091B00081604F
:1005A0008093B0008091910082608093910080914F
:1005B0009100816080939100809190008160809390
:1005C00090008091A10082608093A1008091A100A1
:1005D00081608093A1008091A00081608093A00041
:1005E00080912101826080932101809121018160AD
:1005F000809321018091200181608093200180916E
:100600007A00846080937A0080917A00826080937F
:100610007A0080917A00816080937A0080917A00DC
:10062000806880937A001092C10061E082E40E94A9
:10063000CF0161E089E30E94CF0161E08AE30E947B
:10064000CF0161E088E30E94CF0161E087E30E946F
:10065000CF0160E082E00E94CF0161E082E00E9471
:10066000A101C4E0D2E00EEB11E028E7E22E21E088
:10067000F22E30E0C32E30E0D32EFE018491F8013B
:10068000A490F701B490BB2009F48BC081110E94A3
:100690003A01EB2DF0E0EE0FFF1FE45AFE4FA5915B
:1006A000B4918C91A82209F47CC061E082E40E949C
:1006B000A10161E087E30E94A10160EA7FE080E0A0
:1006C00090E00E94250260E087E30E94A10161E0C2
:1006D00088E30E94A10160ED77E080E090E00E9455
:1006E00025020E94570261E08AE30E94A10160EDA9
:1006F00077E080E090E00E94250260E082E40E94C2
:10070000A10161E089E30E94A10160EA7FE080E04D
:1007100090E00E94250285E0A82EB12C64EF71E0E4
:1007200080E090E00E94250261E089E30E94A1013F
:1007300064EF71E080E090E00E94250260E089E3D0
:100740000E94A101F1E0AF1AB10841F761E082E433
:100750000E94A10160ED77E080E090E00E94250218
:1007600061E088E30E94A10168EE73E080E090E020
:100770000E94250260E08AE30E94A1010E945702C4
:1007800061E087E30E94A10160ED77E080E090E006
:100790000E942502C114D10409F46FCF0E94000009
:1007A0006CCF60E082E40E94A10160E089E30E94D6
:1007B000A10160E08AE30E94A1010E94570260E06B
:1007C00087E30E94A10164EF71E080E090E00E9465
:1007D000250261E088E30E94A10164EF71E080E0FE
:1007E00090E00E9425020E945702D4CFEE0FFF1F17
:1007F000881F8BBF0790F691E02D1994F894FFCFD6
:00000001FF
