:100000000C9428010C942C040C9401040C94D60339
:100010000C94AB030C9480030C9455030C942A03AA
:100020000C94FF020C9449010C9449010C94490171
:100030000C9449010C9449010C9449010C94490118
:100040000C9449010C9449010C9449010C94490108
:100050000C9449010C9449010C9449010C94B5028B
:100060000C9449010C9449010C9449010C944901E8
:100070000C9449010C9449010C9449010C944901D8
:100080000C9449010C9449010C9449010C944901C8
:100090000C9449010C9449010C9449010C944901B8
:1000A0000C9449010C9449010C9449010C944901A8
:1000B0000C9449010C9449010C9449010C94490198
:1000C0000C9449010C9449010C9449010C94490188
:1000D0000C9449010C9449010C9449010C94490178
:1000E0000C9449010C946F010C9469010C947301F8
:1000F0000C949C010C9492010C9492020C94770144
:100100000C9491020C9484010C94A9010C94A0010C
:100110000C9488010C94AE010C94A4010C947E0103
:100120000C9496010C947B010C94AA010C948E0102
:1001300000002100240027002A002D003000330099
:1001400001010000040107010A010000220025004E
:1001500028002B002E0031003400020100000501B0
:1001600008010B01000020002300260029002C00BC
:100170002F003200000100000301060109010505FE
:100180000505070508080808020202020A0A08080D
:10019000040404040101010101010101030303033B
:1001A00003030303040707070C0C0C0C0C0C0C0CCA
:1001B0000202020206060606060606060B0B0B0BDB
:1001C0000B0B0B0B01021020200808102040102000
:1001D000408002010201080402010102040810200B
:1001E0004080804020100804020180040201804009
:1001F0002010080402010804020101020408102072
:100200004080010204081020408000000A0B02090F
:100210000C0D0E08070304010000000000000000A0
:1002200000000000000000000000000000000000CE
:10023000000000000000121110000000000000008B
:1002400000000000000000000000000000000000AE
:1002500011241FBECFEFD1E2DEBFCDBF00E00CBF47
:1002600012E0A0E0B2E0E4EFFBE000E00BBF02C070
:1002700007900D92A031B107D9F722E0A0E1B2E0DA
:1002800001C01D92AB31B207E1F70E9457040C94F4
:10029000F8050C9400008150823108F05AC0E82F14
:1002A000F0E08827E95AFE4F8F4F0C94F005770154
:1002B0007B0169016F017301A9017E01840188013D
:1002C0008E01920196019C01A001A901A401AA013D
:1002D000AE01809180008F77809380000895809197
:1002E00080008F7DF9CF80918000877FF5CF84B526
:1002F0008F7784BD089584B58F7DFBCF8091B0004A
:100300008F778093B00008958091B0008F7DF9CFF2
:10031000809190008F778093900008958091900055
:100320008F7DF9CF80919000877FF5CF8091A000DD
:100330008F778093A00008958091A0008F7DF9CFE2
:100340008091A000877FF5CF809120018F778093E7
:1003500020010895809120018F7DF9CF80912001A7
:10036000877FF5CFCF93DF93282F30E0F901E65F49
:10037000FD4F8491F901EC53FE4FD491F901E258FD
:10038000FE4FC491CC23A1F081110E944B01EC2FB0
:10039000F0E0EE0FFF1FEC59FE4FA591B491EC91E8
:1003A000ED2381E090E009F480E0DF91CF910895A2
:1003B00080E090E0FACF1F93CF93DF93282F30E0B7
:1003C000F901E65FFD4F8491F901EC53FE4FD491A2
:1003D000F901E258FE4FC491CC23A9F0162F8111E8
:1003E0000E944B01EC2FF0E0EE0FFF1FE65BFE4F8B
:1003F000A591B4918FB7F894EC91111108C0D095E4
:10040000DE23DC938FBFDF91CF911F910895DE2B08
:10041000F8CFCF93DF9390E0FC01EC53FE4F249193
:1004200082589E4FFC0184918823D1F090E0880F80
:10043000991FFC01E05DFE4FA591B491FC01E65BC4
:10044000FE4FC591D49161110EC09FB7F8948C9165
:10045000E22FE0958E238C932881E223E8839FBFCF
:10046000DF91CF9108958FB7F894EC91E22BEC9344
:100470008FBFF6CF3FB7F894809115029091160286
:10048000A0911702B091180226B5A89B05C02F3F76
:1004900019F00196A11DB11D3FBFBA2FA92F982FAA
:1004A0008827BC01CD01620F711D811D911D42E0A5
:1004B000660F771F881F991F4A95D1F708958F926D
:1004C0009F92AF92BF92CF92DF92EF92FF924B0139
:1004D0005C010E943A026B017C010E943A026C1995
:1004E0007D098E099F09683E734081059105A8F337
:1004F00021E0821A9108A108B10888EEC80E83E0B5
:10050000D81EE11CF11C81149104A104B10429F747
:10051000FF90EF90DF90CF90BF90AF909F908F9023
:10052000089508952FB7F8948091110290911202C6
:10053000A0911302B09114022FBF84369105A1053A
:10054000B10570F080911A02882319F081E0809340
:10055000190281E080931A0261E086E30C94DB01CA
:10056000089560E088E30C94DB011F920F920FB6B0
:100570000F9211242F933F938F939F93AF93BF9329
:100580008091110290911202A0911302B091140275
:100590003091100223E0230F2D3758F50196A11D4D
:1005A000B11D209310028093110290931202A09328
:1005B0001302B09314028091150290911602A0913B
:1005C0001702B09118020196A11DB11D809315026A
:1005D00090931602A0931702B0931802BF91AF91A7
:1005E0009F918F913F912F910F900FBE0F901F9071
:1005F000189526E8230F0296A11DB11DD2CF1F9298
:100600000F920FB60F9211240BB60F922F933F93B8
:100610004F935F936F937F938F939F93AF93BF930A
:10062000EF93FF93E0910E02F0910F021995FF9165
:10063000EF91BF91AF919F918F917F916F915F915A
:100640004F913F912F910F900BBE0F900FBE0F90C7
:100650001F9018951F920F920FB60F9211240BB690
:100660000F922F933F934F935F936F937F938F934B
:100670009F93AF93BF93EF93FF93E0910C02F091A0
:100680000D021995FF91EF91BF91AF919F918F91BD
:100690007F916F915F914F913F912F910F900BBE82
:1006A0000F900FBE0F901F9018951F920F920FB6CC
:1006B0000F9211240BB60F922F933F934F935F939A
:1006C0006F937F938F939F93AF93BF93EF93FF931A
:1006D000E0910202F09103021995FF91EF91BF9111
:1006E000AF919F918F917F916F915F914F913F91CA
:1006F0002F910F900BBE0F900FBE0F901F9018956B
:100700001F920F920FB60F9211240BB60F922F93D8
:100710003F934F935F936F937F938F939F93AF9389
:10072000BF93EF93FF93E0910002F09101021995BE
:10073000FF91EF91BF91AF919F918F917F916F91B9
:100740005F914F913F912F910F900BBE0F900FBE75
:100750000F901F9018951F920F920FB60F921124B1
:100760000BB60F922F933F934F935F936F937F93AB
:100770008F939F93AF93BF93EF93FF93E0910A0200
:10078000F0910B021995FF91EF91BF91AF919F915D
:100790008F917F916F915F914F913F912F910F902A
:1007A0000BBE0F900FBE0F901F9018951F920F92C7
:1007B0000FB60F9211240BB60F922F933F934F93C6
:1007C0005F936F937F938F939F93AF93BF93EF93B9
:1007D000FF93E0910802F09109021995FF91EF91C2
:1007E000BF91AF919F918F917F916F915F914F9149
:1007F0003F912F910F900BBE0F900FBE0F901F9047
:1008000018951F920F920FB60F9211240BB60F92EC
:100810002F933F934F935F936F937F938F939F9308
:10082000AF93BF93EF93FF93E0910602F09107021D
:100830001995FF91EF91BF91AF919F918F917F910A
:100840006F915F914F913F912F910F900BBE0F9041
:100850000FBE0F901F9018951F920F920FB60F9218
:1008600011240BB60F922F933F934F935F936F9387
:100870007F938F939F93AF93BF93EF93FF93E091F9
:100880000402F09105021995FF91EF91BF91AF918C
:100890009F918F917F916F915F914F913F912F9198
:1008A0000F900BBE0F900FBE0F901F90189578946D
:1008B00084B5826084BD84B5816084BD85B5826065
:1008C00085BD85B5816085BD80916E008160809316
:1008D0006E0010928100809181008260809381007F
:1008E000809181008160809381008091800081608F
:1008F000809380008091B10084608093B1008091EA
:10090000B00081608093B0008091910082608093FC
:10091000910080919100816080939100809190007E
:100920008160809390008091A10082608093A100FB
:100930008091A10081608093A1008091A0008160DE
:100940008093A00080912101826080932101809199
:100950002101816080932101809120018160809339
:10096000200180917A00846080937A0080917A00DF
:10097000826080937A0080917A00816080937A000F
:1009800080917A00806880937A001092C10061E0C3
:1009900082E40E94090261E089E30E94090261E0A9
:1009A0008AE30E94090261E088E30E94090261E093
:1009B00087E30E94090261E086E30E94090260E089
:1009C00082E00E94090261E082E00E94DB0160E0B7
:1009D00084E10E94090261E084E10E94DB0182E976
:1009E00092E0909307028093060280916900837FD2
:1009F000846080936900E99A61E082E40E94DB01EF
:100A000061E089E30E94DB0161E08AE30E94DB018F
:100A100061E088E30E94DB0161E087E30E94DB0183
:100A200068EE73E080E090E00E945F0260E082E4A4
:100A30000E94DB0160E089E30E94DB0160E08AE361
:100A40000E94DB0160E088E30E94DB0160E087E355
:100A50000E94DB0100E010E082E00E94B2010197F9
:100A600009F099C061E087E30E94DB0161E082E464
:100A70000E94DB0184E10E94B201892B09F084C04D
:100A800010921A0261E082E40E94DB0161E087E3D8
:100A90000E94DB0160EA7FE080E090E00E945F025C
:100AA00060E087E30E94DB0161E088E30E94DB01F4
:100AB00060ED77E080E090E00E945F020E94B1026A
:100AC00061E08AE30E94DB0160ED77E080E090E086
:100AD0000E945F0260E082E40E94DB0161E089E342
:100AE0000E94DB0160E177E280E090E00E945F021B
:100AF00080911902882331F068E873E180E090E08A
:100B00000E945F02C5E0D0E064EF71E080E090E019
:100B10000E945F0261E089E30E94DB0164EF71E003
:100B200080E090E00E945F0260E089E30E94DB01C8
:100B3000219751F761E082E40E94DB0160ED77E0EC
:100B400080E090E00E945F0261E088E30E94DB01A8
:100B500068EE73E080E090E00E945F0260E08AE36C
:100B60000E94DB010E94B10261E087E30E94DB0189
:100B700060ED77E080E090E00E945F021092190241
:100B800060E086E30E94DB010115110509F464CFE2
:100B90000E94000061CF60E082E40E94DB0160E01F
:100BA00089E30E94DB0160E08AE30E94DB010E948E
:100BB000B10260E087E30E94DB0164EF71E080E056
:100BC00090E00E945F0261E088E30E94DB0164EF35
:100BD00071E080E090E00E945F020E94B102D4CFF9
:100BE000EE0FFF1F881F8BBF0790F691E02D199421
:040BF000F894FFCFA7
:100BF4009102910291029102910291029102910259
:00000001FF
