:100000000C945D000C947A000C947A000C947A00A5
:100010000C947A000C947A000C947A000C949A0157
:100020000C947A000C947A000C947A000C947A0068
:100030000C947A000C947A000C947A000C947A0058
:100040000C941C020C947A000C947A000C947A00A4
:100050000C947A000C947A000C947A000C947A0038
:100060000C947A000C947A00000000080002010051
:100070000003040700000000000000000200000070
:1000800000250028002B0000000000240027002A83
:100090000004040404040404040202020202020331
:1000A000030303030301020408102040800102043B
:1000B0000810200102040810200011241FBECFEFF9
:1000C000D8E0DEBFCDBF11E0A0E0B1E0E0EBF8E0AA
:1000D00002C005900D92A230B107D9F721E0A2E04D
:1000E000B1E001C01D92AC31B207E1F70E94660297
:1000F0000C9456040C94000090E0FC01EB55FF4F6B
:1001000024918F569F4FFC018491882399F090E0B1
:10011000880F991FFC01E957FF4FA591B491FC018D
:10012000E358FF4F859194918FB7F894EC91E22BAF
:10013000EC938FBF089590E0FC01E859FF4F2491A4
:10014000FC01EB55FF4F3491FC01EF56FF4FE4915A
:10015000EE23C9F0222339F0233001F1A8F4213035
:1001600019F1223029F1F0E0EE0FFF1FE358FF4FA5
:10017000A591B4918FB7F894EC91611126C0309598
:100180003E233C938FBF08952730A9F02830C9F053
:10019000243049F7809180008F7D03C080918000DA
:1001A0008F7780938000DFCF84B58F7784BDDBCFDE
:1001B00084B58F7DFBCF8091B0008F778093B000A6
:1001C000D2CF8091B0008F7DF9CF3E2BDACF1F9335
:1001D000CF93DF93182FEB010E947C00209739F416
:1001E00060E0812FDF91CF911F910C949B00CF3F56
:1001F000D10511F461E0F5CFE12FF0E0E859FF4FB0
:10020000E491E33031F140F4E130B1F0E230E1F07B
:10021000C038D1057CF7E4CFE73029F1E83059F157
:10022000E430B1F780918000806280938000D093A9
:100230008B00C0938A0004C084B5806884BDC7BDAC
:10024000DF91CF911F91089584B5806284BDC8BDB0
:10025000F7CF80918000806880938000D0938900E0
:10026000C0938800EDCF8091B00080688093B0008B
:10027000C093B300E5CF8091B00080628093B0005E
:10028000C093B400DDCF3FB7F894809107019091FF
:100290000801A0910901B0910A0126B5A89B05C0EB
:1002A0002F3F19F00196A11DB11D3FBFBA2FA92FF5
:1002B000982F8827BC01CD01620F711D811D911DF2
:1002C00042E0660F771F881F991F4A95D1F708955E
:1002D0008F929F92AF92BF92CF92DF92EF92FF9256
:1002E0004B015C010E9443016B017C010E944301B0
:1002F0006C197D098E099F09683E7340810591053F
:10030000A8F321E0821A9108A108B10888EEC80E6E
:1003100083E0D81EE11CF11C81149104A104B104F6
:1003200029F7FF90EF90DF90CF90BF90AF909F9014
:100330008F9008951F920F920FB60F9211242F9352
:100340003F934F935F936F937F938F939F93AF935D
:10035000BF93EF93FF938091100190911101A091B1
:100360001201B0911301892B8A2B8B2BD1F1909123
:100370000B01E0910C01F0910D01808189278083B0
:100380008091100190911101A0911201B09113017F
:10039000181619061A061B069CF4809110019091FC
:1003A0001101A0911201B09113010197A109B109A6
:1003B0008093100190931101A0931201B093130147
:1003C000FF91EF91BF91AF919F918F917F916F912D
:1003D0005F914F913F912F910F900FBE0F901F9003
:1003E000189580910001ECE7F0E0E4919FEF909385
:1003F0000001E13051F030F0E23069F060E00E943D
:100400009B00DECF10926E00F9CF90916F009D7F20
:1004100090936F00F3CF909170009D7F9093700048
:1004200091E09093B0009091B100987F9460909388
:10043000B1001092B300E2CF1F920F920FB60F924D
:1004400011242F933F938F939F93AF93BF938091EA
:10045000030190910401A0910501B0910601309132
:10046000020123E0230F2D3758F50196A11DB11D80
:10047000209302018093030190930401A09305014E
:10048000B09306018091070190910801A0910901A4
:10049000B0910A010196A11DB11D809307019093AF
:1004A0000801A0930901B0930A01BF91AF919F91F8
:1004B0008F913F912F910F900FBE0F901F90189525
:1004C00026E8230F0296A11DB11DD2CFCF93DF9353
:1004D00000D000D000D0CDB7DEB7789484B582606C
:1004E00084BD84B5816084BD85B5826085BD85B5D8
:1004F000816085BD80916E00816080936E00109256
:1005000081008091810082608093810080918100D0
:100510008160809381008091800081608093800061
:100520008091B10084608093B1008091B0008160BF
:100530008093B00080917A00846080937A008091EB
:100540007A00826080937A0080917A008160809343
:100550007A0080917A00806880937A001092C100BE
:1005600087E00E947C0086E00E947C0085E00E947B
:100570007C0087E20E947C003CEC232E30E0332E8E
:10058000C12CD12C7601C701B6012BE030E040E050
:1005900050E00E9415043A832983812C912C540148
:1005A000C501B4012BE330E040E050E00E941504A7
:1005B0003C832B83412C512C32011E821D82698188
:1005C0007A8187E00E94E7006B817C8186E00E944F
:1005D000E700C301B2012BE330E040E050E00E94AD
:1005E0001504B90185E00E94E70068EE73E080E041
:1005F00090E00E9468018D819E81CB9709F0DCC05C
:1006000080910001873249F5ECE7F0E0149117FD85
:10061000CDC087E20E947C00112309F48FC0123004
:1006200009F0A4C08091B100887F83608093B100FD
:1006300089EF8093B30088EE93E0A0E0B0E0809370
:10064000100190931101A0931201B09313018091B6
:100650007000826080937000A9C08F3F09F0A6C02F
:1006600087E280930001ECE7F0E014911F3F09F46A
:100670009DC0113019F148F0123009F43DC017FD4A
:1006800095C087E20E947C00CACF14BC15BC84B51B
:10069000826084BD85B5816085BDE8EBF0E0849122
:1006A000E82FF0E0EE0FFF1FE358FF4F8591949184
:1006B000F101849180930F0110E0ABCF1092800084
:1006C00010928100809181008860809381008091E8
:1006D0008100816080938100E8EBF0E08491E82F55
:1006E000F0E0EE0FFF1FE358FF4F85919491F10169
:1006F000849180930E018DCF1092B0001092B100C2
:100700008091B00082608093B0008091B1008160E0
:100710008093B100E8EBF0E08491E82FF0E0EE0F79
:10072000FF1FE358FF4F8591949190930D018093A3
:100730000C01F101849180930B016BCF85B5887F0B
:10074000836085BD8CE787BD88EE93E0A0E0B0E0D4
:100750008093180190931901A0931A01B0931B0183
:1007600080916E00826080936E0020C0113009F08D
:1007700054C080918100887F8160809381008FE3E5
:100780009FE1909389008093880088EE93E0A0E039
:10079000B0E08093140190931501A0931601B093DB
:1007A000170180916F00826080936F0060E67AEE9F
:1007B00080E090E00E946801ED81FE813196FE8329
:1007C000ED83FFEF4F0E511C611C711C8D819E81CA
:1007D000CC9709F0F4CE9FEF890E911CA11CB11C9F
:1007E000E4EC8E16EBE39E06A104B10409F0D8CE2A
:1007F000FFEFCF0ED11CE11CF11C84EFC8168BE07B
:10080000D806E104F10409F0BECE80E090E0892B27
:1008100009F4B6CE0E940000B3CE123021F01111BF
:10082000C5CF8FE390CF8FE304CF052E97FB1EF447
:1008300000940E942C0457FD07D00E94340407FC4A
:1008400003D04EF40C942C0450954095309521958E
:100850003F4F4F4F5F4F08959095809570956195EC
:100860007F4F8F4F9F4F0895A1E21A2EAA1BBB1BEB
:10087000FD010DC0AA1FBB1FEE1FFF1FA217B3076C
:10088000E407F50720F0A21BB30BE40BF50B661F82
:10089000771F881F991F1A9469F760957095809546
:1008A00090959B01AC01BD01CF010895F894FFCF55
:0208B000FF0047
:00000001FF
