:100000000C9418010C9439010C9439010C943901A9
:100010000C9439010C9439010C9439010C94390178
:100020000C9439010C9439010C9439010C94390168
:100030000C9439010C9435020C9439010C9439015B
:100040000C9439010C9439010C9439010C94390148
:100050000C9439010C9439010C9439010C94D4029C
:100060000C9439010C9439010C9439010C94390128
:100070000C9439010C9439010C9439010C94390118
:100080000C9439010C9439010C9439010C94390108
:100090000C9439010C9439010C9439010C943901F8
:1000A0000C9439010C9439010C9439010C943901E8
:1000B0000C9439010C9439010C9439010C943901D8
:1000C0000C9439010C9439010C9439010C943901C8
:1000D0000C9439010C9439010C9439010C943901B8
:1000E0000C9439010C94C8010C94D2010C94A90110
:1000F0000C94AD010C94C0010C94D6010C94C40175
:100100000C94E0010C948F010C948A010C94A501CD
:100110000C94B6010C94B0010C94A1010C94BA019A
:100120000C94CE010C94DC0100000A0B02090C0DAA
:100130000E0807030401000000000000000000009A
:1001400000000000000000000000000000000000AF
:10015000000000001211100000000000000000006C
:10016000000000000000000000000000000002008D
:10017000002200250028002B002E00310034000250
:10018000010000050108010B0100002100240027E7
:10019000002A002D00300033000101000004010797
:1001A000010A0105050505070508080808020202FD
:1001B000020A0A0808040404040101010101010102
:1001C000010303030303030303040707070C0C0CD9
:1001D0000C0C0C0C0C0202020206060606060606B1
:1001E000060B0B0B0B0B0B0B0B010210202008084E
:1001F0001020401020408002010201080402010189
:100200000204081020408080402010080402018071
:1002100004020180402010080402010804020101C8
:1002200002040810204080010204081020408000D1
:1002300011241FBECFEFD1E2DEBFCDBF00E00CBF67
:1002400012E0A0E0B2E0E2E8FCE000E00BBF02C098
:1002500007900D92A230B107D9F722E0A2E0B2E0F8
:1002600001C01D92A133B207E1F70E941E030C9456
:100270003F060C94000090E0FC01E751FE4F2491F2
:100280008D559E4FFC018491882399F090E0880F52
:10029000991FFC01E757FE4FA591B491FC01E1596C
:1002A000FE4F859194918FB7F894EC91E22BEC93EB
:1002B0008FBF0895282F30E0F901E85DFE4F94913B
:1002C000F901E751FE4F44912D553E4FF90124911C
:1002D000222309F435C0992311F191509231F8F499
:1002E000E92FF0E08827E858FE4F8F4F0C94300636
:1002F000A901AD018A01A101A5018F01B001B601DB
:10030000BA01C001C401C801CE01D2018F01D601DA
:10031000DC01E001809180008F7780938000E22FE4
:10032000F0E0EE0FFF1FE159FE4FA591B4918FB79A
:10033000F894EC91611148C040954E234C938FBFC7
:100340000895809180008F7DE8CF80918000877F25
:10035000E4CF84B58F7784BDE2CF84B58F7DFBCFAA
:100360008091B0008F778093B000D9CF8091B0009A
:100370008F7DF9CF809190008F7780939000CFCFC1
:10038000809190008F7DF9CF80919000877FF5CF8D
:100390008091A0008F778093A000C1CF8091A000B2
:1003A0008F7DF9CF8091A000877FF5CF80912001CC
:1003B0008F7780932001B3CF809120018F7DF9CF7B
:1003C00080912001877FF5CF4E2BB8CF3FB7F894AF
:1003D0008091070290910802A0910902B0910A024F
:1003E00026B5A89B05C02F3F19F00196A11DB11D90
:1003F0003FBFBA2FA92F982F8827BC01CD01620FCC
:10040000711D811D911D42E0660F771F881F991F86
:100410004A95D1F708950F931F93CF93C82F8B015F
:1004200061E00E945A0128EE33E0D8010E943806AC
:1004300024EB30E040E050E00E94E0052C573C4FB8
:100440004F4F5F4F2230310548F0220F331F220FEC
:10045000331F25503109C9010197F1F760E08C2F56
:10046000CF911F910F910C945A011F920F920FB6CA
:100470000F9211240BB60F922F933F934F935F93DC
:100480006F937F938F939F93AF93BF93EF93FF935C
:1004900080911F0290912002A0912102B09122022E
:1004A000892B8A2B8B2BE1F190910E02E0910F02A8
:1004B000F091100280818927808380911F029091A2
:1004C0002002A0912102B0912202181619061A06E4
:1004D0001B069CF480911F0290912002A0912102A2
:1004E000B09122020197A109B10980931F02909354
:1004F0002002A0932102B0932202FF91EF91BF91BD
:10050000AF919F918F917F916F915F914F913F91AB
:100510002F910F900BBE0F900FBE0F901F9018954C
:1005200080910002EEE6F1E0E4919FEF90930002EB
:10053000E230E9F040F4EE2389F0E13091F060E040
:100540000E945A01DACFE43049F110F1E530B9F7F1
:10055000909173009D7F90937300F1CF10926E0085
:10056000EECF90916F009D7F90936F00E8CF9091B8
:1005700070009D7F9093700091E09093B0009091F7
:10058000B100987F94609093B1001092B300D7CFE0
:10059000909171009D7F90937100D1CF90917200E6
:1005A0009D7F90937200CBCF1F920F920FB60F9248
:1005B00011242F933F938F939F93AF93BF93809179
:1005C000030290910402A0910502B09106023091BD
:1005D000020223E0230F2D3758F50196A11DB11D0E
:1005E000209302028093030290930402A0930502D9
:1005F000B09306028091070290910802A09109022F
:10060000B0910A020196A11DB11D8093070290933B
:100610000802A0930902B0930A02BF91AF919F9183
:100620008F913F912F910F900FBE0F901F901895B3
:1006300026E8230F0296A11DB11DD2CF789484B570
:10064000826084BD84B5816084BD85B5826085BDCE
:1006500085B5816085BD80916E00816080936E005C
:10066000109281008091810082608093810080914E
:1006700081008160809381008091800081608093FF
:1006800080008091B10084608093B1008091B000BF
:1006900081608093B000809191008260809391008E
:1006A00080919100816080939100809190008160A1
:1006B000809390008091A10082608093A10080913E
:1006C000A10081608093A1008091A000816080934F
:1006D000A0008091210182608093210180912101FD
:1006E00081608093210180912001816080932001AD
:1006F00080917A00846080937A0080917A00826091
:1007000080937A0080917A00816080937A00809152
:100710007A00806880937A001092C10085E00E9480
:100720003B0186E00E943B0187E00E943B0187E29B
:100730000E943B0170E060E085E090E00E940B02C7
:1007400070E060E086E090E00E940B0270E060E004
:1007500087E090E00E940B02CFE3DFE17AEC272EE6
:1007600071E0372EE8ECCE2ED12CE12CF12CA090AC
:100770002F02B09030022FEFA21AB20AB0923002CC
:10078000A0922F0224EB30E0D5010E9438062BE323
:1007900030E040E050E00E94E005B90185E090E0E3
:1007A0000E940B028CE3A816B10409F0D0C180911D
:1007B0000002873229F5EEE6F1E0149117FD7DC1C4
:1007C00087E20E943B01112309F4F0C0123009F0C6
:1007D00001C18091B100887F83608093B10089EF6F
:1007E0008093B300C0921F02D0922002E0922102B7
:1007F000F0922202809170008260809370005DC14F
:100800008F3F09F05AC187E280930002EEE6F1E0E3
:100810001491812F1F3F09F450C1123009F467C0B1
:1008200058F4112371F1113009F443C087FD45C11B
:1008300087E20E943B01CACF143009F499C008F442
:1008400078C0153099F71092200110922101809103
:100850002101886080932101809121018160809332
:100860002101F1018491E82FF0E0EE0FFF1FE15923
:10087000FE4F85919491E0E1F2E0849180930B0228
:100880009FCF14BC15BC84B5826084BD85B58160E2
:1008900085BDF1018491E82FF0E0EE0FFF1FE159D3
:1008A000FE4F85919491E0E1F2E0849180931202F1
:1008B00087CF109280001092810080918100886023
:1008C0008093810080918100816080938100F1019B
:1008D0008491E82FF0E0EE0FFF1FE159FE4F859164
:1008E0009491E0E1F2E084918093110269CF10923B
:1008F000B0001092B1008091B00082608093B0008F
:100900008091B10081608093B100F1018491E82F62
:10091000F0E0EE0FFF1FE159FE4F85919491909307
:10092000100280930F02E0E1F2E0849180930E02C6
:1009300047CF1092900010929100809191008860B2
:100940008093910080919100816080939100F101EA
:100950008491E82FF0E0EE0FFF1FE159FE4F8591E3
:100960009491E0E1F2E0849180930D0213E028CFAE
:100970001092A0001092A1008091A1008860809345
:10098000A1008091A10081608093A100F101849178
:10099000E82FF0E0EE0FFF1FE159FE4F8591949193
:1009A000E0E1F2E0849180930C020ACF85B5887F64
:1009B000836085BD8CE787BDC0922702D092280254
:1009C000E0922902F0922A0280916E008260809368
:1009D0006E0073C01130C1F480918100887F816006
:1009E00080938100D0938900C0938800C092230235
:1009F000D0922402E0922502F092260280916F00AC
:100A0000826080936F0059C01330C1F480919100CF
:100A1000887F816080939100D0939900C093980063
:100A2000C0921B02D0921C02E0921D02F0921E02A4
:100A3000809171008260809371003FC01430C1F4D6
:100A40008091A100887F81608093A100D093A9004C
:100A5000C093A800C0921702D0921802E092190227
:100A6000F0921A028091720082608093720025C019
:100A70001530C1F480912101887F8160809321012C
:100A8000D0932901C0932801C0921302D09214027E
:100A9000E0921502F09216028091730082608093BA
:100AA00073000BC0123009F489C00CF07CC0112314
:100AB00009F482C0113009F495CF109230021092DF
:100AC0002F02A0902D02B0902E02FFEFAF1ABF0AA6
:100AD000B0922E02A0922D0224EB30E0D5010E94AC
:100AE00038062BE330E040E050E00E94E005B90119
:100AF00086E090E00E940B022CE3A216B10439F5C7
:100B000010922E0210922D02A0902B02B0902C0277
:100B10008FEFA81AB80AB0922C02A0922B0224EBF5
:100B200030E0D5010E9438062BE030E040E050E094
:100B30000E94E005B90187E090E00E940B029CE072
:100B4000A916B10421F410922C0210922B020E94DB
:100B5000E6012B013C0184E6882E912CA12CB12CBE
:100B60000E94E6016419750986099709683E734079
:100B700081059105A8F3E1E08E1A9108A108B1085A
:100B8000F8EE4F0EF3E05F1E611C711C811491049E
:100B9000A104B10429F780E090E0892B09F4E7CDA6
:100BA0000E940000E4CD143009F450CF0CF434CF8F
:100BB000153009F465CF81CF8FE3FDCE8FE310CEE2
:100BC000052E97FB1EF400940E94F70557FD07D0F1
:100BD0000E94FF0507FC03D04EF40C94F7055095D6
:100BE0004095309521953F4F4F4F5F4F0895909519
:100BF0008095709561957F4F8F4F9F4F0895A1E22B
:100C00001A2EAA1BBB1BFD010DC0AA1FBB1FEE1F86
:100C1000FF1FA217B307E407F50720F0A21BB30BD1
:100C2000E40BF50B661F771F881F991F1A9469F74D
:100C300060957095809590959B01AC01BD01CF01A9
:100C40000895A29FB001B39FC001A39F700D811DA5
:100C50001124911DB29F700D811D1124911D0895C5
:100C6000EE0FFF1F881F8BBF0790F691E02D1994A0
:100C70000E942106B7FF0895821B930B0895F894F4
:020C8000FFCFA4
:020C8200FF0071
:00000001FF
