:100000000C9428010C94BB030C9490030C9465038E
:100010000C943A030C940F030C94E4020C94B90270
:100020000C948E020C9449010C9449010C944901E2
:100030000C9449010C9449010C9449010C94490118
:100040000C9449010C9449010C9449010C94490108
:100050000C9449010C9449010C9449010C944402FC
:100060000C9449010C9449010C9449010C944901E8
:100070000C9449010C9449010C9449010C944901D8
:100080000C9449010C9449010C9449010C944901C8
:100090000C9449010C9449010C9449010C944901B8
:1000A0000C9449010C9449010C9449010C944901A8
:1000B0000C9449010C9449010C9449010C94490198
:1000C0000C9449010C9449010C9449010C94490188
:1000D0000C9449010C9449010C9449010C94490178
:1000E0000C9449010C947E010C9492010C94A9018A
:1000F0000C9484010C9443020C9469010C94AA01A1
:100100000C9488010C9409020C948E010C94A401A7
:100110000C949C010C9477010C94A0010C947B012D
:100120000C94AE010C9496010C946F010C94730125
:1001300000002100240027002A002D003000330099
:1001400001010000040107010A010000220025004E
:1001500028002B002E0031003400020100000501B0
:1001600008010B01000020002300260029002C00BC
:100170002F003200000100000301060109010505FE
:100180000505070508080808020202020A0A08080D
:10019000040404040101010101010101030303033B
:1001A00003030303040707070C0C0C0C0C0C0C0CCA
:1001B0000202020206060606060606060B0B0B0BDB
:1001C0000B0B0B0B01021020200808102040102000
:1001D000408002010201080402010102040810200B
:1001E0004080804020100804020180040201804009
:1001F0002010080402010804020101020408102072
:100200004080010204081020408000000A0B02090F
:100210000C0D0E08070304010000000000000000A0
:1002200000000000000000000000000000000000CE
:10023000000000000000121110000000000000008B
:1002400000000000000000000000000000000000AE
:1002500011241FBECFEFD1E2DEBFCDBF00E00CBF47
:1002600012E0A0E0B2E0E8EEF9E000E00BBF02C06F
:1002700007900D92A031B107D9F722E0A0E1B2E0DA
:1002800001C01D92AA31B207E1F70E94E6030C9467
:10029000F2040C9400008150823108F05AC0E82F1B
:1002A000F0E08827E95AFE4F8F4F0C94EA0477015B
:1002B0007B0169016F017301A9017E01840188013D
:1002C0008E01920196019C01A001A901A401AA013D
:1002D000AE01809180008F77809380000895809197
:1002E00080008F7DF9CF80918000877FF5CF84B526
:1002F0008F7784BD089584B58F7DFBCF8091B0004A
:100300008F778093B00008958091B0008F7DF9CFF2
:10031000809190008F778093900008958091900055
:100320008F7DF9CF80919000877FF5CF8091A000DD
:100330008F778093A00008958091A0008F7DF9CFE2
:100340008091A000877FF5CF809120018F778093E7
:1003500020010895809120018F7DF9CF80912001A7
:10036000877FF5CFCF93DF93282F30E0F901E65F49
:10037000FD4F8491F901EC53FE4FD491F901E258FD
:10038000FE4FC491CC23A1F081110E944B01EC2FB0
:10039000F0E0EE0FFF1FEC59FE4FA591B491EC91E8
:1003A000ED2381E090E009F480E0DF91CF910895A2
:1003B00080E090E0FACF1F93CF93DF93282F30E0B7
:1003C000F901E65FFD4F8491F901EC53FE4FD491A2
:1003D000F901E258FE4FC491CC23A9F0162F8111E8
:1003E0000E944B01EC2FF0E0EE0FFF1FE65BFE4F8B
:1003F000A591B4918FB7F894EC91111108C0D095E4
:10040000DE23DC938FBFDF91CF911F910895DE2B08
:10041000F8CF6091100281E06827609310028DE0B0
:100420000C94DB01CF93DF9390E0FC01EC53FE4F83
:10043000249182589E4FFC0184918823D1F090E052
:10044000880F991FFC01E05DFE4FA591B491FC015E
:10045000E65BFE4FC591D49161110EC09FB7F89431
:100460008C91E22FE0958E238C932881E223E88300
:100470009FBFDF91CF9108958FB7F894EC91E22B55
:10048000EC938FBFF6CF08951F920F920FB60F9285
:1004900011242F933F938F939F93AF93BF9380919A
:1004A000160290911702A0911802B0911902309192
:1004B000150223E0230F2D3758F50196A11DB11D1C
:1004C000209315028093160290931702A0931802AE
:1004D000B09319028091110290911202A09113021F
:1004E000B09114020196A11DB11D80931102909349
:1004F0001202A0931302B0931402BF91AF919F9187
:100500008F913F912F910F900FBE0F901F901895D4
:1005100026E8230F0296A11DB11DD2CF1F920F9284
:100520000FB60F9211240BB60F922F933F934F9358
:100530005F936F937F938F939F93AF93BF93EF934B
:10054000FF93E0910E02F0910F021995FF91EF9148
:10055000BF91AF919F918F917F916F915F914F91DB
:100560003F912F910F900BBE0F900FBE0F901F90D9
:1005700018951F920F920FB60F9211240BB60F927F
:100580002F933F934F935F936F937F938F939F939B
:10059000AF93BF93EF93FF93E0910C02F0910D02A4
:1005A0001995FF91EF91BF91AF919F918F917F919D
:1005B0006F915F914F913F912F910F900BBE0F90D4
:1005C0000FBE0F901F9018951F920F920FB60F92AB
:1005D00011240BB60F922F933F934F935F936F931A
:1005E0007F938F939F93AF93BF93EF93FF93E0918C
:1005F0000202F09103021995FF91EF91BF91AF9123
:100600009F918F917F916F915F914F913F912F912A
:100610000F900BBE0F900FBE0F901F9018951F925A
:100620000F920FB60F9211240BB60F922F933F9398
:100630004F935F936F937F938F939F93AF93BF93EA
:10064000EF93FF93E0910002F09101021995FF9161
:10065000EF91BF91AF919F918F917F916F915F913A
:100660004F913F912F910F900BBE0F900FBE0F90A7
:100670001F9018951F920F920FB60F9211240BB670
:100680000F922F933F934F935F936F937F938F932B
:100690009F93AF93BF93EF93FF93E0910A02F09182
:1006A0000B021995FF91EF91BF91AF919F918F919F
:1006B0007F916F915F914F913F912F910F900BBE62
:1006C0000F900FBE0F901F9018951F920F920FB6AC
:1006D0000F9211240BB60F922F933F934F935F937A
:1006E0006F937F938F939F93AF93BF93EF93FF93FA
:1006F000E0910802F09109021995FF91EF91BF91E5
:10070000AF919F918F917F916F915F914F913F91A9
:100710002F910F900BBE0F900FBE0F901F9018954A
:100720001F920F920FB60F9211240BB60F922F93B8
:100730003F934F935F936F937F938F939F93AF9369
:10074000BF93EF93FF93E0910602F0910702199592
:10075000FF91EF91BF91AF919F918F917F916F9199
:100760005F914F913F912F910F900BBE0F900FBE55
:100770000F901F9018951F920F920FB60F92112491
:100780000BB60F922F933F934F935F936F937F938B
:100790008F939F93AF93BF93EF93FF93E0910402E6
:1007A000F09105021995FF91EF91BF91AF919F9143
:1007B0008F917F916F915F914F913F912F910F900A
:1007C0000BBE0F900FBE0F901F901895789484B5B4
:1007D000826084BD84B5816084BD85B5826085BD3D
:1007E00085B5816085BD80916E00816080936E00CB
:1007F00010928100809181008260809381008091BD
:10080000810081608093810080918000816080936D
:1008100080008091B10084608093B1008091B0002D
:1008200081608093B00080919100826080939100FC
:10083000809191008160809391008091900081600F
:10084000809390008091A10082608093A1008091AC
:10085000A10081608093A1008091A00081608093BD
:10086000A00080912101826080932101809121016B
:10087000816080932101809120018160809320011B
:1008800080917A00846080937A0080917A008260FF
:1008900080937A0080917A00816080937A008091C1
:1008A0007A00806880937A001092C10061E085E44C
:1008B0000E94120261E081E40E94120261E08EE374
:1008C0000E94120261E085E10E94120261E082E171
:1008D0000E94120261E083E10E94120260E086E160
:1008E0000E94120260E088E30E94120260E084E449
:1008F0000E94120261E08DE00E9412026FEF84E11B
:100900000E94DB0189E092E0909307028093060247
:1009100080916900837F80936900E99AC0E0D0E00C
:100920006FEF82E00E94DB016FEF88E30E94DB0142
:100930006FEF81E00E94DB016FEF84E40E94DB0136
:100940006FEF86E10E94DB016FEF89E30E94DB011C
:1009500086E10E94B201892BE9F46FEF85E10E94E4
:10096000DB016FEF82E10E94DB016FEF83E10E9408
:10097000DB0160E085E40E94DB0160E081E40E942D
:10098000DB0160E08EE30E94DB01209749F20E94C8
:100990000000C6CF88E30E94B201892BF1F284E403
:1009A0000E94B201892BC9F260E085E10E94DB015F
:1009B00060E082E10E94DB0160E083E10E94DB01F4
:1009C0006FEF85E40E94DB016FEF81E40E94DB01A1
:1009D0006FEFD8CFEE0FFF1F881F8BBF0790F691E8
:0809E000E02D1994F894FFCFFB
:1009E80043024302430243024302430243024302D7
:00000001FF
