:100000000C9432010C9463010C9463010C94630111
:100010000C9463010C9463010C9463010C946301D0
:100020000C9463010C9463010C9463010C946301C0
:100030000C9463010C9463010C9463010C946301B0
:100040000C9463010C9463010C9463010C946301A0
:100050000C9463010C9463010C9463010C94A50649
:100060000C9463010C9463010C9463010C94630180
:100070000C9463010C9463010C9463010C94630170
:100080000C9463010C9463010C9463010C94630160
:100090000C9463010C9463010C9463010C94630150
:1000A0000C9463010C9463010C9463010C94630140
:1000B0000C9463010C9463010C9463010C94630130
:1000C0000C9463010C9463010C9463010C94630120
:1000D0000C9463010C9463010C9463010C94630110
:1000E0000C9463010C94DE010C9466010C94C6011F
:1000F0000C94E4010C94F1010C94EC010C94D601E5
:100100000C94B7010C94B2020C94E8010C94B10168
:100110000C94CC010C94F2010C9465010C94C30175
:100120000C94DA010C94D0010C94BF010C94F601EC
:100130000C94BB010C9440080C9424050C94E0072B
:1001400000002100240027002A002D003000330089
:1001500001010000040107010A010000220025003E
:1001600028002B002E0031003400020100000501A0
:1001700008010B01000020002300260029002C00AC
:100180002F003200000100000301060109010505EE
:100190000505070508080808020202020A0A0808FD
:1001A000040404040101010101010101030303032B
:1001B00003030303040707070C0C0C0C0C0C0C0CBA
:1001C0000202020206060606060606060B0B0B0BCB
:1001D0000B0B0B0B010210202008081020401020F0
:1001E00040800201020108040201010204081020FB
:1001F00040808040201008040201800402018040F9
:100200002010080402010804020101020408102061
:100210004080010204081020408000000A0B0209FF
:100220000C0D0E0807030401000000000000000090
:1002300000000000000000000000000000000000BE
:10024000000000000000121110000000000000007B
:10025000000000000000000000000000000000009E
:10026000E007400811241FBECFEFD1E2DEBFCDBFB3
:1002700000E00CBF22E0A6E4B2E001C01D92A3376B
:10028000B207E1F712E0A0E0B2E0E6EEF5E100E04F
:100290000BBF02C007900D92A634B107D9F711E049
:1002A000C1E3D1E000E006C021970109802FFE01E3
:1002B0000E94AF08C033D10780E00807A9F70E9469
:1002C000EF060C94E10A0C9400000895AF92BF92DF
:1002D000CF92DF92EF92FF920F931F93CF93DF9312
:1002E0006C017B018B01040F151FEB015E01AE1841
:1002F000BF08C017D10759F06991D601ED91FC9163
:100300000190F081E02DC6011995892B79F7C5017F
:10031000DF91CF911F910F91FF90EF90DF90CF90E1
:10032000BF90AF9008958150823108F05AC0E82FF5
:10033000F0E08827E156FE4F8F4F0C94AF08BF01C5
:10034000C301B101B701BB01F101C601CC01D0016C
:10035000D601DA01DE01E401E801F101EC01F2016C
:10036000F601809180008F778093800008958091BE
:1003700080008F7DF9CF80918000877FF5CF84B595
:100380008F7784BD089584B58F7DFBCF8091B000B9
:100390008F778093B00008958091B0008F7DF9CF62
:1003A000809190008F7780939000089580919000C5
:1003B0008F7DF9CF80919000877FF5CF8091A0004D
:1003C0008F778093A00008958091A0008F7DF9CF52
:1003D0008091A000877FF5CF809120018F77809357
:1003E00020010895809120018F7DF9CF8091200117
:1003F000877FF5CFCF93DF93282F30E0F901E65EBA
:10040000FD4F8491F901EC52FE4FD491F901E2576E
:10041000FE4FC491CC23A1F081110E949301EC2FD7
:10042000F0E0EE0FFF1FEC58FE4FA591B491EC9158
:10043000ED2381E090E009F480E0DF91CF91089511
:1004400080E090E0FACF1F93CF93DF93282F30E026
:10045000F901E65EFD4F8491F901EC52FE4FD49113
:10046000F901E257FE4FC491CC23A9F0162F811158
:100470000E949301EC2FF0E0EE0FFF1FE65AFE4FB3
:10048000A591B4918FB7F894EC91111108C0D09553
:10049000DE23DC938FBFDF91CF911F910895DE2B78
:1004A000F8CFCF93DF9390E0FC01EC52FE4F249104
:1004B00082579E4FFC0184918823C9F090E0880FF9
:1004C000991FFC01E05CFE4FA591B491FC01E65A36
:1004D000FE4FC591D49161110DC09FB7F8948C91D6
:1004E000209582238C938881282328839FBFDF91C6
:1004F000CF910895623051F49FB7F8943C91822FC8
:10050000809583238C93E8812E2BEFCF8FB7F894BF
:10051000EC912E2B2C938FBFEACF3FB7F8948091AC
:100520004B0290914C02A0914D02B0914E0226B523
:10053000A89B05C02F3F19F00196A11DB11D3FBF1B
:10054000BA2FA92F982F8827BC01CD01620F711DEA
:10055000811D911D42E0660F771F881F991F4A95E4
:10056000D1F7089590E080E008952F923F924F9246
:100570005F926F927F928F929F92AF92BF92CF9233
:10058000DF92EF92FF920F931F93CF93DF930AE1D5
:1005900012E026E0E22E22E0F22EB12CF8012190AA
:1005A0008F0161E0822D0E94510260E0822D0E9445
:1005B000230296E1C92E92E0D92ED0E0C0E0F601E8
:1005C00031906F0162E0832D0E945102832D0E94C1
:1005D000FA01892B69F50E948D022B013C0182E30F
:1005E000882E912CA12CB12C0E948D0264197509C2
:1005F00086099709683E734081059105A8F3F1E0EB
:100600008F1A9108A108B10828EE420E23E0521E6D
:10061000611C711C81149104A104B10429F7832D7C
:100620000E94FA01892BD9F3F701EC0FFD1FB0806E
:1006300060E0832D0E9451022196C430D10509F05B
:10064000BECF60E0822D0E945102F4E0EF0EF11C5B
:100650008EE192E08017910709F0A0CF8B2DDF91FA
:10066000CF911F910F91FF90EF90DF90CF90BF90AF
:10067000AF909F908F907F906F905F904F903F9042
:100680002F900895CF93DF93EC01809151029091C8
:1006900052020097E9F06881798161157105B1F026
:1006A00040915302509154022C813D8142175307CF
:1006B00068F00E94DA0A8C819D81909356028093A3
:1006C00055021D821C82DF91CF9108950E94670917
:1006D0008881998190935202809351028A819B81F3
:1006E00090935402809353028C819D819093560283
:1006F00080935502198218821B821A82E2CFFC0174
:1007000080819181009711F00C94670908958F9270
:100710009F92AF92BF920F931F93CF93DF93CDB76A
:10072000DEB7A1970FB6F894DEBF0FBECDBF19A2FA
:10073000423008F44AE08E010F5D1F4F842E912C49
:10074000B12CA12CA50194010E948D08E62FB901BE
:10075000CA01EA3044F5E05DD801EE938D01232B08
:10076000242B252B79F790E080E0109769F0FD01AC
:1007700001900020E9F73197AF014A1B5B0BBD01E7
:1007800087E592E00E946601A1960FB6F894DEBF5D
:100790000FBECDBFDF91CF911F910F91BF90AF9052
:1007A0009F908F900895E95CD7CFFC0101900020C5
:1007B000E9F73197AF01481B590BBC0187E592E07F
:1007C0000C946601CF93DF93EC0160E08E810E9470
:1007D000230261E08E810E94230260E08E810E94EC
:1007E00023028BE891E00197F1F7DF91CF91089513
:1007F000CF92DF92EF92FF920F931F93CF93DF93ED
:100800006C017C0187E0E80EF11CD0E0C0E0062F0F
:1008100010E0B8010C2E02C0759567950A94E2F7B6
:100820006170F70181917F010E9423022196C430FB
:10083000D10579F7C601DF91CF911F910F91FF90FC
:10084000EF90DF90CF900C94E203CF92DF92EF9283
:10085000FF920F931F93CF93DF93EC01F62E642F3B
:100860008C810E9423028D818F3F19F060E00E94ED
:1008700023020F2D10E08F8584FF25C06E0187E0D5
:10088000C80ED11CF12CE12CB8010E2C02C07595BC
:1008900067950A94E2F76170F60181916F010E94F9
:1008A0002302FFEFEF1AFF0A88E0E816F10461F770
:1008B000CE01DF91CF911F910F91FF90EF90DF90CC
:1008C000CF900C94E203B80184E0759567958A9502
:1008D000E1F7CE010E94F8036F2DCE01DF91CF9199
:1008E0001F910F91FF90EF90DF90CF900C94F80341
:1008F00040E0682F87E592E00C942504CF93DF93C6
:10090000823029F4909166029860909366028093F9
:100910006A0210926B0280E480936C0280E1809303
:100920006D0280E580936E0261E080915B020E941F
:10093000510280915C028F3F19F061E00E945102E8
:1009400061E080915D020E945102C7E5D2E09E0104
:10095000275532408091660284FD0BC084E090E010
:1009600021962817390744F461E08E810E945102D4
:10097000EECF88E090E0F4CF8BE39DE00197F1F7B4
:1009800060E080915B020E94230260E080915D0242
:100990000E94230280915C028F3F19F060E00E9468
:1009A00023028091660284FD39C063E087E592E00E
:1009B0000E94F803CBE4D6E4CE010197F1F763E09F
:1009C00087E592E00E94F8032197F1F763E087E55D
:1009D00092E00E94F80383E592E00197F1F762E06C
:1009E00087E592E00E94F8038091660280620E948F
:1009F000780484E0809367028CE00E94780481E0B0
:100A00000E9478048BE39FE10197F1F782E08093E5
:100A1000680286E0DF91CF910C94780480620E9496
:100A200078048BE496E40197F1F780916602806286
:100A30000E94780483E592E00197F1F780916602C5
:100A400080620E947804D0CF41E00E94250481E0BA
:100A500090E00895CF92DF92EF92FF926C01990F90
:100A6000EE08FF08F7FE16C041E06DE287E592E070
:100A70000E94250466277727CB016C197D098E0912
:100A80009F094AE00E9487030196FF90EF90DF9054
:100A9000CF9008954AE0C701B601FF90EF90DF9034
:100AA000CF900C9487030F931F93CF93DF93EC01A8
:100AB00088819981009759F02A813B812617370751
:100AC00030F081E0DF91CF911F910F9108958B015C
:100AD0006F5F7F4F0E94F009009759F099838883D8
:100AE0001B830A832C813D81232B59F7FC01108243
:100AF000E8CF80E0E7CFEF92FF920F931F93CF9361
:100B0000DF93EC017B01FB0101900020E9F73197B5
:100B10008F01061B170BB8010E94530528813981EC
:100B2000811113C02115310519F0C9010E9467090F
:100B3000198218821D821C821B821A82DF91CF913A
:100B40001F910F91FF90EF9008951D830C83B701C3
:100B5000C901DF91CF911F910F91FF90EF900C94FD
:100B6000DA0A0F931F93CF93DF93CDB7DEB7629767
:100B70000FB6F894DEBF0FBECDBF8C01CB01F801DC
:100B80001182108213821282158214824AE0BE0101
:100B90006F5F7F4F0E944408BE016F5F7F4FC801A7
:100BA0000E947B0562960FB6F894DEBF0FBECDBFE4
:100BB000DF91CF911F910F910895CF92DF92EF9225
:100BC000FF920F931F93CF93DF9300D000D0CDB748
:100BD000DEB7F82E409155025091560260915102B5
:100BE0007091520287E592E00E94660141E06F2D0C
:100BF00087E592E00E94250410E000E08AE0E82EFC
:100C00000E94B502C82E082E000CDD0890E3C91A18
:100C1000D1089AE0C916D10478F441E0682F87E53D
:100C200092E00E942504E09EC001E19E900D1124F7
:100C30008601080F191FE4CF8D3311F7E0916A0286
:100C4000E230D8F5E150F0E0E95AFD4F8489806840
:100C50000E9478048AE292E00E94D5038BE2F816A3
:100C600009F442C08F155CF19AE2F91609F452C0FA
:100C700080914F02909150020E942A0560914F028C
:100C800070915002CE0101960E94B105CE010196ED
:100C90000E944203CE0101960E947F0326960FB662
:100CA000F894DEBF0FBECDBFDF91CF911F910F91A2
:100CB000FF90EF90DF90CF900895E1E0C4CF8DE2F8
:100CC000F816E9F09FE2F912D3CF0115110571F181
:100CD00080914F0290915002B8010E947908709360
:100CE000500260934F02C4CF80914F029091500206
:100CF000080F191F1093500200934F02B9CF809133
:100D00004F0290915002801B910B90935002809360
:100D10004F02AECF20914F0230915002209FC00170
:100D2000219F900D309F900D1124EFCF83E392E02F
:100D30000E94D5031092500210924F0262E372E0BB
:100D400081E592E00E947B0593CF1F920F920FB630
:100D50000F9211242F933F938F939F93AF93BF9341
:100D60008091470290914802A0914902B0914A02B5
:100D70003091460223E0230F2D3758F50196A11D2F
:100D8000B11D209346028093470290934802A0939E
:100D90004902B0934A0280914B0290914C02A0917B
:100DA0004D02B0914E020196A11DB11D80934B02E0
:100DB00090934C02A0934D02B0934E02BF91AF911D
:100DC0009F918F913F912F910F900FBE0F901F9089
:100DD000189526E8230F0296A11DB11DD2CFCF93FF
:100DE000DF9300D000D0CDB7DEB7789484B58260B1
:100DF00084BD84B5816084BD85B5826085BD85B5BF
:100E0000816085BD80916E00816080936E0010923C
:100E100081008091810082608093810080918100B7
:100E20008160809381008091800081608093800048
:100E30008091B10084608093B1008091B0008160A6
:100E40008093B000809191008260809391008091A6
:100E500091008160809391008091900081608093E7
:100E600090008091A10082608093A1008091A100F8
:100E700081608093A1008091A00081608093A00098
:100E80008091210182608093210180912101816004
:100E900080932101809120018160809320018091C5
:100EA0007A00846080937A0080917A0082608093D7
:100EB0007A0080917A00816080937A0080917A0034
:100EC000806880937A001092C10082E00E947E04C4
:100ED0008BE3C82E8FE1D82E0AE090E0E92E90E057
:100EE000F92E0E94B502182F882319F181E00E9483
:100EF0007804C6010197F1F7E1E080916A0281115F
:100F0000E0E0E195F0E0E95AFD4F848980680E94B5
:100F100078041235A1F41092500210924F0262E34D
:100F200072E081E592E00E947B0589E392E00E94F5
:100F3000D503E114F104A9F20E940000D2CF1D33C1
:100F400059F48AE292E00E94D50380914F02909179
:100F500050020E942A05EDCF812F012E000C990B23
:100F6000C0978A309105E0F420914F0230915002F1
:100F7000029FB001039F700D1124680F791F7093B9
:100F8000500260934F02CE0101960E94B105CE013E
:100F900001960E944203CE0101960E947F03D5CFA5
:100FA0008BE21B3251F08DE21D3239F08AE21A32A7
:100FB00021F01F3209F0BDCF8FE20E94DD05B9CFCD
:100FC00010925A021092590282E292E090935802D3
:100FD000809357028EE080935B028FEF80935C02D8
:100FE0008FE080935D0282E180935E0283E18093D3
:100FF0005F0284E18093600285E180936102109238
:1010000062021092630210926402109265021092C2
:10101000660281E00E947E041092520210925102F8
:1010200010925402109253021092560210925502DE
:1010300070E060E081E592E00E945305209151024A
:1010400030915202811113C02115310519F0C901E7
:101050000E94670910925202109251021092560299
:101060001092550210925402109253020895109259
:1010700056021092550262E372E0C9010C94DA0A3A
:1010800081E592E00C947F03BB274A3031F4992329
:1010900022F4BDE2909581959F4F0C945008BB2798
:1010A000FB015527AA27880F991FAA1FA41710F024
:1010B000A41B83955051B9F7A05DAA3308F0A95D30
:1010C000A193009779F7B111B1931192CB010C94D0
:1010D0006908DC01FC01672F71917723E1F73297F2
:1010E00004C07C916D9370836291AE17BF07C8F303
:1010F000089597FB072E16F4009407D077FD09D0CA
:101100000E94B70807FC05D03EF4909581959F4F4B
:101110000895709561957F4F0895A1E21A2EAA1B3C
:10112000BB1BFD010DC0AA1FBB1FEE1FFF1FA21797
:10113000B307E407F50720F0A21BB30BE40BF50B94
:10114000661F771F881F991F1A9469F7609570951D
:10115000809590959B01AC01BD01CF010895EE0FE4
:10116000FF1F881F8BBF0790F691E02D1994AA1BD3
:10117000BB1B51E107C0AA1FBB1FA617B70710F082
:10118000A61BB70B881F991F5A95A9F780959095B4
:10119000BC01CD0108950F931F93CF93DF9382304D
:1011A000910510F482E090E0E0917102F0917202FA
:1011B00030E020E0B0E0A0E0309799F4211531054F
:1011C00009F44AC0281B390B24303105D8F58A812F
:1011D0009B816115710589F1FB0193838283FE0177
:1011E00011C0408151810281138148175907E0F0F5
:1011F0004817590799F4109761F012960C931297BB
:1012000013961C933296CF01DF91CF911F910F91CE
:1012100008950093710210937202F4CF21153105E5
:1012200051F04217530738F0A901DB019A01BD01C3
:10123000DF01F801C1CFEF01F9CF909372028093E3
:101240007102CDCFFE01E20FF31F819391932250E3
:10125000310939832883D7CF20916F0230917002F2
:10126000232B41F42091020230910302309370024B
:1012700020936F0220910002309101022115310567
:1012800041F42DB73EB74091040250910502241B52
:10129000350BE0916F02F0917002E217F307A0F4B2
:1012A0002E1B3F0B2817390778F0AC014E5F5F4FBC
:1012B0002417350748F04E0F5F1F5093700240937C
:1012C0006F02819391939FCFF0E0E0E09CCFCF93AA
:1012D000DF930097E9F0FC01329713821282A0910C
:1012E0007102B0917202ED0130E020E01097A1F49C
:1012F00020813181820F931F20916F023091700203
:101300002817390709F061C0F0937002E0936F026B
:10131000DF91CF910895EA01CE17DF07E8F54A8102
:101320005B819E0141155105B1F7E901FB83EA8319
:1013300049915991C40FD51FEC17FD0761F48081C5
:1013400091810296840F951FE90199838883828198
:1013500093819B838A83F0E0E0E012968D919C91CB
:1013600013970097B9F52D913C911197CD010296F5
:10137000820F931F20916F02309170022817390756
:1013800039F6309751F51092720210927102B093B3
:101390007002A0936F02BCCFD383C283408151817E
:1013A000840F951FC817D90761F44E5F5F4F88817E
:1013B0009981480F591F518340838A819B81938370
:1013C00082832115310509F0B0CFF0937202E093CA
:1013D00071029ECFFD01DC01C0CF13821282D7CFF4
:1013E0004F925F926F927F928F929F92AF92BF9235
:1013F000CF92DF92EF92FF920F931F93CF93DF93E1
:101400008C01009799F4CB01DF91CF911F910F913F
:10141000FF90EF90DF90CF90BF90AF909F908F9014
:101420007F906F905F904F900C94CB08FC01E60F7B
:10143000F71F9C0122503109E217F30708F4AEC0F0
:10144000D901CD91DC911197C617D70720F1C5308E
:10145000D10578F0CE0104978617970750F0C61B88
:10146000D70B2297C193D1936D937C93CF010E94A8
:101470006709C801DF91CF911F910F91FF90EF9005
:10148000DF90CF90BF90AF909F908F907F906F90A4
:101490005F904F9008955B01AC1ABD0A4C018C0E11
:1014A0009D1EA0917102B0917202512C412CF12C21
:1014B000E12C109731F580916F02909170028815A0
:1014C000990509F05CC04616570608F058C080918F
:1014D000000290910102009741F48DB79EB74091B0
:1014E000040250910502841B950BE817F90708F0D8
:1014F00055C0F0937002E0936F02F901718360832D
:10150000B8CF8D919C91119712966C90129713966B
:101510007C901397A815B90559F56C0142E0C40EEB
:10152000D11CCA14DB0420F1AC014A195B09DA01B1
:101530001296159780F06282738251834083D9019D
:101540006D937C93E114F10471F0D7011396FC9331
:10155000EE9312978ECF22968C0F9D1FF9019183E7
:101560008083F301EFCFF0937202E093710281CF99
:101570004816590608F42C017D01D3019ACFCB01FE
:101580000E94CB087C01009749F0AE01B8010E948F
:10159000D10AC8010E94670987016BCF10E000E003
:1015A00068CFFB01DC0102C001900D924150504018
:1015B000D8F70895FB01DC0101900D920020E1F7BE
:1015C000089511E0C1E3D1E000E006C0802FFE01E4
:1015D0000E94AF082196011DC233D10780E00807A1
:0615E000A9F7F894FFCF0B
:1015E6000000730280002F2A2D2B3936333D383503
:1015F6003230373431520302010007060504000079
:10160600000024056601B2026501526573756C74AB
:101616003A20004572726F7200526573756C7420C1
:061626007265736574009B
:00000001FF
