:100000000C9422010C9453010C9453010C94530151
:100010000C9453010C9453010C9453010C94530110
:100020000C9453010C9453010C9453010C94530100
:100030000C9453010C9453010C9453010C945301F0
:100040000C9453010C9453010C9453010C945301E0
:100050000C9453010C9453010C9453010C94FA0426
:100060000C9453010C9453010C9453010C945301C0
:100070000C9453010C9453010C9453010C945301B0
:100080000C9453010C9453010C9453010C945301A0
:100090000C9453010C9453010C9453010C94530190
:1000A0000C9453010C9453010C9453010C94530180
:1000B0000C9453010C9453010C9453010C94530170
:1000C0000C9453010C9453010C9453010C94530160
:1000D0000C9453010C9453010C9453010C94530150
:1000E0000C9453010C9408020C94E2010C94D80176
:1000F0000C94EC010C94CD010C9416040C94D101D9
:100100000C94C9010C94F0010C94DE010C94B20122
:100110000C947F020C94FA010C9404020C94D50107
:100120000C9480020C94FE010C9455010C94B701C0
:100130000C94E8010C94F6010C9455070000210082
:10014000240027002A002D003000330001010000A8
:10015000040107010A0100002200250028002B00ED
:100160002E003100340002010000050108010B01DE
:1001700005050505070508080808020202020A0A23
:100180000808040404040101010101010101030341
:10019000030303030303040707070C0C0C0C0C0CEC
:1001A0000C0C0202020206060606060606060B0BE9
:1001B0000B0B0B0B0B0B010210202008081020402A
:1001C000102040800201020108040201010204081B
:1001D00010204080804020100804020180040201A9
:1001E00080402010080402010804020101020408F2
:1001F00010204080010204081020408000000A0BFB
:1002000002090C0D0E0807030401000000000000A5
:1002100000000000000000000000000000000000DE
:10022000000000000000000012111000000000009B
:1002300000000000000000000000000000000000BE
:100240000000550711241FBECFEFD1E2DEBFCDBFA6
:1002500000E00CBF12E0A0E0B2E0E4EBF3E100E06C
:100260000BBF02C007900D92A033B107D9F722E06F
:10027000A0E3B2E001C01D92A135B207E1F711E0A1
:10028000C2E2D1E000E006C021970109802FFE0103
:100290000E94D009C132D10780E00807A9F70E9467
:1002A00044050C94D8090C940000AF92BF92CF92F1
:1002B000DF92EF92FF920F931F93CF93DF936C0126
:1002C0007B018B01040F151FEB015E01AE18BF0807
:1002D000C017D10759F06991D601ED91FC910190B9
:1002E000F081E02DC6011995892B79F7C501DF91C1
:1002F000CF911F910F91FF90EF90DF90CF90BF9023
:10030000AF900895282F30E0F901E450FE4F94910A
:10031000F901EA54FE4F449120593E4FF9012491CE
:10032000222309F435C0992311F191509231F8F448
:10033000E92FF0E08827E056FE4F8F4F0C94D0094C
:10034000D101D501B201C901CD01B701D801DE014A
:10035000E201E801EC01F001F601FA01B701FE014A
:1003600004020802809180008F7780938000E22F42
:10037000F0E0EE0FFF1FEA5AFE4FA591B4918FB740
:10038000F894EC91611148C040954E234C938FBF77
:100390000895809180008F7DE8CF80918000877FD5
:1003A000E4CF84B58F7784BDE2CF84B58F7DFBCF5A
:1003B0008091B0008F778093B000D9CF8091B0004A
:1003C0008F7DF9CF809190008F7780939000CFCF71
:1003D000809190008F7DF9CF80919000877FF5CF3D
:1003E0008091A0008F778093A000C1CF8091A00062
:1003F0008F7DF9CF8091A000877FF5CF809120017C
:100400008F7780932001B3CF809120018F7DF9CF2A
:1004100080912001877FF5CF4E2BB8CFCF93DF930C
:1004200090E0FC01EA54FE4F249180599E4FFC015C
:1004300084918823D1F090E0880F991FFC01E45C3F
:10044000FE4FA591B491FC01EA5AFE4FC591D4919B
:1004500061110EC09FB7F8948C91E22FE0958E2326
:100460008C932881E223E8839FBFDF91CF91089589
:100470008FB7F894EC91E22BEC938FBFF6CF8653B5
:1004800020917B00982F987F277F922B90937B0061
:100490008770806480937C0080917A008064809370
:1004A0007A0080917A0086FDFCCF8091780090914F
:1004B000790008953FB7F894809135029091360203
:1004C000A0913702B091380226B5A89B05C02F3FF6
:1004D00019F00196A11DB11D3FBFBA2FA92F982F6A
:1004E0008827BC01CD01620F711D811D911D42E065
:1004F000660F771F881F991F4A95D1F708950895B1
:1005000090E080E00895FC0101900020E9F7319728
:10051000AF01481B590BBC0189E392E00C945501D3
:100520008F929F92AF92BF920F931F93CF93DF93BF
:10053000CDB7DEB7A1970FB6F894DEBF0FBECDBF23
:1005400019A2423008F44AE08E010F5D1F4F842E3D
:10055000912CB12CA12CA50194010E94AE09E62F8B
:10056000B901CA01EA30F4F4E05DD801EE938D01DF
:10057000232B242B252B79F790E080E0109719F09E
:10058000CD010E948302A1960FB6F894DEBF0FBE84
:10059000CDBFDF91CF911F910F91BF90AF909F90F2
:1005A0008F900895E95CE1CFCF93DF93EC0160E099
:1005B0008E810E94820161E08E810E94820160E052
:1005C0008E810E9482018BE891E00197F1F7DF9123
:1005D000CF910895CF92DF92EF92FF920F931F93E6
:1005E000CF93DF936C017C0187E0E80EF11CD0E033
:1005F000C0E0062F10E0B8010C2E02C0759567957B
:100600000A94E2F76170F70181917F010E948201F3
:100610002196C430D10579F7C601DF91CF911F91A2
:100620000F91FF90EF90DF90CF900C94D402CF9277
:10063000DF92EF92FF920F931F93CF93DF93EC0122
:10064000F62E642F8C810E9482018D818F3F19F0DC
:1006500060E00E9482010F2D10E08F8584FF25C08D
:100660006E0187E0C80ED11CF12CE12CB8010E2CD4
:1006700002C0759567950A94E2F76170F601819161
:100680006F010E948201FFEFEF1AFF0A88E0E8166F
:10069000F10461F7CE01DF91CF911F910F91FF908F
:1006A000EF90DF90CF900C94D402B80184E0759560
:1006B00067958A95E1F7CE010E94EA026F2DCE017F
:1006C000DF91CF911F910F91FF90EF90DF90CF902E
:1006D0000C94EA0240E0682F89E392E00C9417033F
:1006E000CF93DF93823029F49091480298609093E1
:1006F000480280934C0210924D0280E480934E0297
:1007000080E180934F0280E58093500261E0809108
:100710003D020E940E0280913E028F3F19F061E07F
:100720000E940E0261E080913F020E940E02C9E326
:10073000D2E09E01295332408091480284FD0BC0D3
:1007400084E090E021962817390744F461E08E8117
:100750000E940E02EECF88E090E0F4CF8BE39DE0A4
:100760000197F1F760E080913D020E94820160E014
:1007700080913F020E94820180913E028F3F19F0DA
:1007800060E00E9482018091480284FD39C063E0EC
:1007900089E392E00E94EA02CBE4D6E4CE0101971D
:1007A000F1F763E089E392E00E94EA022197F1F712
:1007B00063E089E392E00E94EA0283E592E0019718
:1007C000F1F762E089E392E00E94EA028091480238
:1007D00080620E946A0384E0809349028CE00E9458
:1007E0006A0381E00E946A038BE39FE10197F1F7BE
:1007F00082E080934A0286E0DF91CF910C946A03F5
:1008000080620E946A038BE496E40197F1F780917D
:10081000480280620E946A0383E592E00197F1F743
:100820008091480280620E946A03D0CF41E00E941A
:10083000170381E090E008954F925F926F927F924C
:100840008F929F92AF92BF92CF92DF92EF92FF92E0
:100850000F931F93CF936B017C01742EAC019B010E
:100860000E94A909882399F08CE092E0CF911F9112
:100870000F91FF90EF90DF90CF90BF90AF909F903F
:100880008F907F906F905F904F900C948302460101
:100890005701E894B7F82FEF3FEF4FE75FE7C50147
:1008A000B4010E94A90981110DC02FEF3FEF4FE75E
:1008B0005FE7C501B4010E94DF0718161CF480E150
:1008C00092E0D4CF2FEF3FEF4FE75FE4C701B601CF
:1008D0000E94370918161CF484E192E0C7CF2FEF6D
:1008E0003FEF4FE75FECC701B6010E94DF0787FDCE
:1008F000F3CF20E030E0A901C701B6010E94DF0775
:1009000010E000E087FF0CC041E06DE289E392E077
:100910000E941703F7FAF094F7F8F09401E010E062
:10092000C0E060E070E080E09FE37C1641F020E0F2
:1009300030E040E251E40E94E407CF5FF6CFA70128
:1009400096010E9473074B015C010E9456082B011F
:100950003C014AE00E949002080F191FCC23C9F104
:10096000C301B2010E9485089B01AC01C501B4011D
:100970000E9472074B015C0141E06EE289E392E064
:100980000E9417030F5F1F4FC15018F120E030E0A5
:1009900040E251E4C501B4010E943C092B013C0135
:1009A0000E9456084B01B12CA12C4AE0C501B401AC
:1009B0000E949002080F191FC501B4010E9485080A
:1009C0009B01AC01C301B2010E9472074B015C01A3
:1009D000DBCFC801CF911F910F91FF90EF90DF9077
:1009E000CF90BF90AF909F908F907F906F905F90CF
:1009F0004F9008951F920F920FB60F9211242F93CC
:100A00003F938F939F93AF93BF93809131029091C7
:100A10003202A0913302B09134023091300223E0CF
:100A2000230F2D3758F50196A11DB11D20933002DB
:100A30008093310290933202A0933302B093340238
:100A40008091350290913602A0913702B091380220
:100A50000196A11DB11D8093350290933602A0939B
:100A60003702B0933802BF91AF919F918F913F9120
:100A70002F910F900FBE0F901F90189526E8230F0F
:100A80000296A11DB11DD2CF789484B5826084BD39
:100A900084B5816084BD85B5826085BD85B5816082
:100AA00085BD80916E00816080936E001092810000
:100AB00080918100826080938100809181008160BB
:100AC000809381008091800081608093800080917C
:100AD000B10084608093B1008091B0008160809308
:100AE000B00080919100826080939100809191008C
:100AF000816080939100809190008160809390004C
:100B00008091A10082608093A1008091A10081600A
:100B10008093A1008091A00081608093A0008091CB
:100B20002101826080932101809121018160809365
:100B300021018091200181608093200180917A00C1
:100B4000846080937A0080917A00826080937A003A
:100B500080917A00816080937A0080917A00806829
:100B600080937A001092C10082E00E94700360E0DE
:100B700087E30E940E0260E089E30E940E0260E0BB
:100B80008BE30E940E0260E08DE30E940E0260E0A3
:100B90008FE30E940E0260E081E40E940E0261E099
:100BA00088E30E940E0261E08AE30E940E0261E087
:100BB0008CE30E940E0261E08EE30E940E0261E06F
:100BC00080E40E940E0260E085E40E940E02CBE306
:100BD000DFE100E010E00E945A024B015C0184E674
:100BE000C82ED12CE12CF12C0E945A0268197909E7
:100BF0008A099B09683E734081059105A8F321E0AD
:100C0000C21AD108E108F10888EE880E83E0981E28
:100C1000A11CB11CC114D104E104F10429F787E33C
:100C20000E943F02BC01990F880B990B0E94870814
:100C300020E030EC4FE754E40E94E40720E030E885
:100C400043ED53E40E943C096B017C0120E030E05D
:100C50004FEA53E40E94DF0787FF0CC161E088E39D
:100C60000E94820189E30E943F02BC01990F880B18
:100C7000990B0E94870820E030EC4FE754E40E9473
:100C8000E40720E030E04FEA53E40E943C096B01A6
:100C90007C0120E030E04CE853E4C701B6010E943B
:100CA000DF0787FFECC061E08AE30E9482018BE3EB
:100CB0000E943F02BC01990F880B990B0E94870884
:100CC00020E030EC4FE754E40E94E40720E030E0FD
:100CD0004CE853E40E943C096B017C0120E030E0C9
:100CE00042E553E4C701B6010E94DF0787FFCCC08D
:100CF00061E08CE30E9482018DE30E943F02BC010F
:100D0000990F880B990B0E94870820E030EC4FE781
:100D100054E40E94E40720E030E042E553E40E94FE
:100D20003C096B017C0120E030E04CE053E4C7015A
:100D3000B6010E94DF0787FFACC061E08EE30E942E
:100D400082018FE30E943F02BC01990F880B990B2F
:100D50000E94870820E030EC4FE754E40E94E4074B
:100D600020E030E04CE053E40E943C096B017C0140
:100D700020E030E04CE852E4C701B6010E94DF07F2
:100D800087FF8CC061E080E40E94820181E40E94C0
:100D90003F02BC01990F880B990B0E94870820E045
:100DA00030EC4FE754E40E94E40720E030E04CE8E8
:100DB00052E40E943C096B017C0185E40E943F02E1
:100DC000BC01990F880B990B0E94870820E030EC3A
:100DD0004FE754E40E94E40720E030E843ED53E499
:100DE0000E943C0920E030E843E553E40E94E40718
:100DF0004B015C0181E00E946A03CE010197F1F78B
:100E0000E1E080914C028111E0E0E195F0E0E75CE7
:100E1000FD4F848980680E946A0388E192E00E9405
:100E2000830242E0C701B6010E941C0482E292E004
:100E30000E948302E0914C02E230A8F5E150F0E01C
:100E4000E75CFD4F848980680E946A0384E292E037
:100E50000E94830242E0C501B4010E941C048EE29C
:100E600092E00E9483020115110509F4B4CE0E949C
:100E70000000B1CE60E088E30E9482010ACF60E00A
:100E80008AE30E9482012ACF60E08CE30E94820103
:100E90004ACF60E08EE30E9482016ACF60E080E486
:100EA0000E9482018ACFE1E0CACFE9E3F2E0138237
:100EB000128284E092E09183808386E184838FEFC5
:100EC00085838CE0868384E0878383E0808782E06B
:100ED000818781E082871386148615861686178699
:100EE0000C9470035058BB27AA270E948A070C94C1
:100EF000FD080E94EF0838F00E94F60820F039F44F
:100F00009F3F19F426F40C94EC080EF4E095E7FBEF
:100F10000C94E608E92F0E940E0958F3BA176207ED
:100F200073078407950720F079F4A6F50C9430092F
:100F30000EF4E0950B2EBA2FA02D0B01B9019001F4
:100F40000C01CA01A0011124FF27591B99F0593F38
:100F500050F4503E68F11A16F040A22F232F342F80
:100F60004427585FF3CF469537952795A795F040CE
:100F70005395C9F77EF41F16BA0B620B730B840BE3
:100F8000BAF09150A1F0FF0FBB1F661F771F881F9B
:100F9000C2F70EC0BA0F621F731F841F48F48795F3
:100FA00077956795B795F7959E3F08F0B0CF9395E5
:100FB000880F08F09927EE0F9795879508950E945E
:100FC000C20808F481E008950E94F8070C94FD0817
:100FD0000E94F60858F00E94EF0840F029F45F3FA5
:100FE00029F00C94E60851110C9431090C94EC088A
:100FF0000E940E0968F39923B1F3552391F3951BD1
:10100000550BBB27AA2762177307840738F09F5F29
:101010005F4F220F331F441FAA1FA9F335D00E2E96
:101020003AF0E0E832D091505040E695001CCAF703
:101030002BD0FE2F29D0660F771F881FBB1F2617C6
:1010400037074807AB07B0E809F0BB0B802DBF019D
:10105000FF2793585F4F3AF09E3F510578F00C946C
:10106000E6080C9431095F3FE4F3983ED4F386958B
:1010700077956795B795F7959F5FC9F7880F911D8D
:101080009695879597F90895E1E0660F771F881F79
:10109000BB1F621773078407BA0720F0621B730B2C
:1010A000840BBA0BEE1F88F7E09508950E9416098D
:1010B00088F09F5798F0B92F9927B751B0F0E1F019
:1010C000660F771F881F991F1AF0BA95C9F714C0C9
:1010D000B13091F00E943009B1E008950C943009CC
:1010E000672F782F8827B85F39F0B93FCCF3869502
:1010F00077956795B395D9F73EF49095809570955F
:1011000061957F4F8F4F9F4F0895E89409C097FBDB
:101110003EF490958095709561957F4F8F4F9F4FCE
:101120009923A9F0F92F96E9BB279395F695879512
:1011300077956795B795F111F8CFFAF4BB0F11F4D5
:1011400060FF1BC06F5F7F4F8F4F9F4F16C088237C
:1011500011F096E911C0772321F09EE8872F762FB2
:1011600005C0662371F096E8862F70E060E02AF0F3
:101170009A95660F771F881FDAF7880F96958795DF
:1011800097F90895990F0008550FAA0BE0E8FEEFB4
:1011900016161706E807F907C0F012161306E4073B
:1011A000F50798F0621B730B840B950B39F40A2634
:1011B00061F0232B242B252B21F408950A2609F412
:1011C000A140A6958FEF811D811D089597F99F6716
:1011D00080E870E060E008959FEF80EC08950024BF
:1011E0000A941616170618060906089500240A948C
:1011F00012161306140605060895092E0394000C12
:1012000011F4882352F0BB0F40F4BF2B11F460FFA0
:1012100004C06F5F7F4F8F4F9F4F089557FD9058C9
:10122000440F551F59F05F3F71F04795880F97FBAA
:10123000991F61F09F3F79F0879508951216130664
:101240001406551FF2CF4695F1DF08C01616170693
:101250001806991FF1CF86957105610508940895C8
:10126000E894BB2766277727CB0197F908950E945A
:10127000C20808F48FEF08950E944F090C94FD08EE
:101280000E94EF0838F00E94F60820F0952311F034
:101290000C94E6080C94EC0811240C9431090E947B
:1012A0000E0970F3959FC1F3950F50E0551F629F93
:1012B000F001729FBB27F00DB11D639FAA27F00DAF
:1012C000B11DAA1F649F6627B00DA11D661F829FD6
:1012D0002227B00DA11D621F739FB00DA11D621FBB
:1012E000839FA00D611D221F749F3327A00D611DD8
:1012F000231F849F600D211D822F762F6A2F1124BA
:101300009F5750409AF0F1F088234AF0EE0FFF1FEC
:10131000BB1F661F771F881F91505040A9F79E3F43
:10132000510580F00C94E6080C9431095F3FE4F31A
:10133000983ED4F3869577956795B795F795E79599
:101340009F5FC1F7FE2B880F911D9695879597F9A2
:1013500008950E94C208880B990B0895A1E21A2EE5
:10136000AA1BBB1BFD010DC0AA1FBB1FEE1FFF1F49
:10137000A217B307E407F50720F0A21BB30BE40B99
:10138000F50B661F771F881F991F1A9469F76095E0
:101390007095809590959B01AC01BD01CF0108959A
:1013A000EE0FFF1F881F8BBF0790F691E02D199459
:0413B000F894FFCFDF
:1013B400000000001604550180027F026E616E0079
:1013C400696E66006F766600566F6C746167653A85
:1013D4002000560043757272656E743A2000410015
:00000001FF
