:100000000C9424010C9445010C9445010C94450179
:100010000C9445010C9445010C9445010C94450148
:100020000C9445010C9445010C9445010C94450138
:100030000C9445010C9445010C9445010C94450128
:100040000C9445010C9445010C9445010C94450118
:100050000C9445010C9445010C9445010C948C07BB
:100060000C9445010C9445010C9445010C944501F8
:100070000C9445010C9445010C9445010C944501E8
:100080000C9445010C9445010C9445010C944501D8
:100090000C9445010C9445010C9445010C944501C8
:1000A0000C9445010C9445010C9445010C944501B8
:1000B0000C9445010C9445010C9445010C944501A8
:1000C0000C9445010C9445010C9445010C94450198
:1000D0000C9445010C9445010C9445010C94450188
:1000E0000C9445010C946B010C9492010C946F01DB
:1000F0000C94A5010C947A010C948E010C9465016A
:100100000C9480010C94A6010C9484010C948A0137
:100110000C94A0010C9477010C9473010C94980139
:100120000C949C010C94AA010000210024002700DB
:100130002A002D00300033000101000004010701F6
:100140000A0100002200250028002B002E003100AB
:10015000340002010000050108010B01000020002D
:100160002300260029002C002F003200000100008F
:10017000030106010901050505050705080808082A
:10018000020202020A0A080804040404010101012F
:10019000010101010303030303030303040707072A
:1001A0000C0C0C0C0C0C0C0C0202020206060606CF
:1001B000060606060B0B0B0B0B0B0B0B010210209C
:1001C000200808102040102040800201020108048D
:1001D0000201010204081020408080402010080421
:1001E000020180040201804020100804020108047A
:1001F00002010102040810204080010204081020BE
:10020000408000000A0B02090C0D0E0807030401D0
:1002100000000000000000000000000000000000DE
:1002200000000000000000000000000000001211AB
:1002300010000000000000000000000000000000AE
:10024000000000000000000011241FBECFEFD1E22B
:10025000DEBFCDBF00E00CBF12E0A0E0B2E0E2E004
:10026000F3E100E00BBF02C007900D92A832B10786
:10027000D9F722E0A8E2B2E001C01D92A535B2078D
:10028000E1F70E94D6070C947F090C94000081507E
:10029000823108F05AC0E82FF0E08827ED5AFE4F6F
:1002A0008F4F0C9463097301770165016B016F0136
:1002B000A5017A01800184018A018E0192019801D1
:1002C0009C01A501A001A601AA01809180008F7761
:1002D000809380000895809180008F7DF9CF809178
:1002E0008000877FF5CF84B58F7784BD089584B56E
:1002F0008F7DFBCF8091B0008F778093B000089501
:100300008091B0008F7DF9CF809190008F7780939E
:1003100090000895809190008F7DF9CF809190009A
:10032000877FF5CF8091A0008F778093A0000895FC
:100330008091A0008F7DF9CF8091A000877FF5CFBD
:10034000809120018F778093200108958091200172
:100350008F7DF9CF80912001877FF5CFCF93DF93F9
:10036000282F30E0F901EE5FFD4F8491F901E4544C
:10037000FE4FD491F901EA58FE4FC491CC23A1F06D
:1003800081110E944701EC2FF0E0EE0FFF1FE45AAD
:10039000FE4FA591B491EC91ED2381E090E009F43A
:1003A00080E0DF91CF91089580E090E0FACF1F9335
:1003B000CF93DF93282F30E0F901EE5FFD4F84915A
:1003C000F901E454FE4FD491F901EA58FE4FC4916B
:1003D000CC23A9F0162F81110E944701EC2FF0E0E9
:1003E000EE0FFF1FEE5BFE4FA591B4918FB7F8940F
:1003F000EC91111108C0D095DE23DC938FBFDF9103
:10040000CF911F910895DE2BF8CFCF93DF9390E02B
:10041000FC01E454FE4F24918A589E4FFC018491C4
:100420008823D1F090E0880F991FFC01E85DFE4F12
:10043000A591B491FC01EE5BFE4FC591D491611181
:100440000EC09FB7F8948C91E22FE0958E238C9389
:100450002881E223E8839FBFDF91CF9108958FB772
:10046000F894EC91E22BEC938FBFF6CF3FB7F89462
:1004700080912D0290912E02A0912F02B091300216
:1004800026B5A89B05C02F3F19F00196A11DB11DEF
:100490003FBFBA2FA92F982F8827BC01CD01620F2B
:1004A000711D811D911D42E0660F771F881F991FE6
:1004B0004A95D1F708958091430290914402909318
:1004C000320280933102A5E4B2E0E1E3F2E081E0A0
:1004D00090E04D915D91219131914217530739F48C
:1004E0001182108222E0EF33F20799F70895918389
:1004F0008083F8CF8F929F92AF92BF92CF92DF927C
:10050000EF92FF920F931F93CF93DF930E943602D7
:100510004B015C0184EFC82EDD24D394E12CF12C37
:100520000E943602681979098A099B09683E73405E
:1005300081059105A8F321E0C21AD108E108F1086C
:1005400088EE880E83E0981EA11CB11CC114D10452
:10055000E104F10429F7C8E1D2E008E012E0888163
:10056000229660E00E94D701F80180810E5F1F4F44
:1005700060E00E94D701F2E0C832DF0781F7DF9127
:10058000CF911F910F91FF90EF90DF90CF90BF9090
:10059000AF909F908F900895CF92DF92EF92FF924D
:1005A0000F931F93CF93DF93CDB7DEB7C05ED140DB
:1005B0000FB6F894DEBF0FBECDBF8E010F5F1F4F89
:1005C00020EE31E0F801A901119241505040E1F7CD
:1005D00045E450E05A83498324E4C22ED12CDC82C6
:1005E000CB82A2E4B0E0BE83AD8363E470E07887A1
:1005F0006F8331E4E32EF12CFA86E986E0E4F0E043
:10060000FC87EB87D8A2CF8E7AA369A35EAF4DAFEC
:100610002196DFAECEAE21972FE330E023963FAF99
:100620002EAF23972596FFAEEEAE25972796BFAF48
:10063000AEAF27976D965FAF4EAF6D976F96DFAEFB
:10064000CEAE6F97A1967FAF6EAFA197A396BFAFC7
:10065000AEAFA397A5963FAF2EAFA597EB96FFAF92
:10066000EEAFEB97ED963FAF2EAFED97EF96DFAE87
:10067000CEAEEF97C158DF4F79836883CF57D04014
:10068000C956DF4F59834883C759D040C756DF4FFB
:10069000F983E883C959D040C556DF4F3983288391
:1006A000CB59D040C356DF4F79836883CD59D040B2
:1006B000C156DF4FB983A883CF59D040CB54DF4F09
:1006C00059834883C55BD040C954DF4FF983E88321
:1006D000C75BD040C754DF4FF982E882C95BD04086
:1006E000C554DF4FB983A883CB5BD040C354DF4FE1
:1006F00079836883CD5BD040C154DF4F3983288331
:10070000CF5BD040CD52DF4F59834883C35DD0408B
:10071000CB52DF4FD982C882C55DD040C952DF4F6E
:1007200079836883C75DD040CF50DF4F59834883BA
:10073000C15FD040CD50DF4FD982C882C35FD04067
:10074000CB50DF4F79836883C55FD040C950DF4FFE
:10075000B983A883C75FD040C750DF4FF982E882D2
:10076000C95FD040C550DF4FF983E883CB5FD040ED
:10077000C350DF4F39832883CD5FD040C15FDE4F48
:1007800059834883CF50D140CF5EDE4FD982C88293
:10079000C151D140CD5EDE4F79836883C351D140D2
:1007A000CB5EDE4FB983A883C551D140C95EDE4F11
:1007B000F983E883C751D140C75EDE4F3983288370
:1007C000C951D140C35DDE4F59834883CD52D140DA
:1007D000C15DDE4FD982C882CF52D140CF5CDE4F9F
:1007E00079836883C153D140CD5CDE4FF982E882C2
:1007F000C353D140CB5CDE4FF983E883C553D1406E
:10080000C95CDE4F39832883C753D140C55BDE4FB7
:1008100079836883CB54D140C35BDE4FB983A8830F
:10082000CD54D140C15BDE4FF982E882CF54D14034
:10083000CF5ADE4FF983E883C155D140CD5ADE4F00
:1008400039832883C355D140C759DE4F5983488324
:10085000C956D140C559DE4FB983A883CB56D14084
:10086000C359DE4FF982E882CD56D140C159DE4FDF
:10087000F983E883CF56D140C957DE4FD982C88269
:10088000C758D140C757DE4F79836883C958D140D4
:10089000C557DE4FB983A883CB58D140C357DE4F2D
:1008A000F982E882CD58D140C157DE4F3983288381
:1008B000CF58D140CB55DE4F59834883C55AD140DC
:1008C000C955DE4FB983A883C75AD140C755DE4FFB
:1008D000F982E882C95AD140C555DE4FF983E883D1
:1008E000CB5AD140C355DE4F39832883CD5AD140EE
:1008F000CD53DE4F59834883C35CD140CB53DE4F89
:10090000F982E882C55CD140C953DE4FF983E883A0
:10091000C75CD140C753DE4F39832883C95CD140BF
:100920002EE1289F6001299FD00C1124F12CE12C8D
:10093000F701EE0FFF1FEC0DFD1DE00FF11F61E051
:1009400080810E94D7015FEFE51AF50A8FE0E81673
:10095000F10471F7C052DE4F0FB6F894DEBF0FBE40
:10096000CDBFDF91CF911F910F91FF90EF90DF905E
:10097000CF900895CF92DF92EF92FF920F931F9343
:10098000CF93DF93CDB7DEB7C05ED1400FB6F894FA
:10099000DEBF0FBECDBF8E010F5F1F4F20EE31E0D7
:1009A000F801A901119241505040E1F74DE350E0A8
:1009B0005A8349832CE3C22ED12CDC82CB826BE399
:1009C00070E07E836D83AAE3B0E0B887AF8339E33C
:1009D000E32EF12CFA86E986E8E3F0E0FC87EB876A
:1009E00078A36F8FDAA2C9A25EAF4DAF2196DFAEBA
:1009F000CEAE219727E330E023963FAF2EAF23976B
:100A00002596FFAEEEAE25972796BFAFAEAF2797E0
:100A10006D965FAF4EAF6D976F96DFAECEAE6F97B0
:100A2000A1967FAF6EAFA197A396BFAFAEAFA397CE
:100A3000A5963FAF2EAFA597EB96DFAECEAEEB9768
:100A4000ED967FAF6EAFED97EF963FAF2EAFEF977E
:100A5000C158DF4FF983E883CF57D040C956DF4FE5
:100A600059834883C759D040C756DF4F798368837D
:100A7000C959D040C556DF4FB983A883CB59D04060
:100A8000C356DF4F39832883CD59D040C156DF4F3D
:100A9000F983E883CF59D040CB54DF4F5983488343
:100AA000C55BD040C954DF4F79836883C75BD040B2
:100AB000C754DF4FB983A883C95BD040C554DF4F0B
:100AC000F982E882CB5BD040C354DF4FF983E883DF
:100AD000CD5BD040C154DF4F39832883CF5BD040FA
:100AE000CD52DF4F59834883C35DD040CB52DF4F97
:100AF000D982C882C55DD040C952DF4F79836883EF
:100B0000C75DD040CF50DF4F59834883C15FD0408D
:100B1000CD50DF4FD982C882C35FD040CB50DF4F6A
:100B200079836883C55FD040C950DF4FB983A883FC
:100B3000C75FD040C750DF4FF982E882C95FD0401D
:100B4000C550DF4FF983E883CB5FD040C350DF4F00
:100B500039832883CD5FD040C15FDE4F59834883FE
:100B6000CF50D140CF5EDE4FD982C882C151D14033
:100B7000CD5EDE4F79836883C351D140CB5EDE4FBB
:100B8000B983A883C551D140C95EDE4FF983E8839C
:100B9000C751D140C75EDE4F39832883C951D14048
:100BA000C35DDE4F59834883CD52D140C15DDE4FD6
:100BB000D982C882CF52D140CF5CDE4F798368831F
:100BC000C153D140CD5CDE4FF982E882C353D1409E
:100BD000CB5CDE4FF983E883C553D140C95CDE4F5F
:100BE00039832883C753D140C55BDE4F798368833F
:100BF000CB54D140C35BDE4FB983A883CD54D140E1
:100C0000C15BDE4FF982E882CF54D140CF5ADE4F2C
:100C1000F983E883C155D140CD5ADE4F398328830B
:100C2000C355D140C759DE4F59834883C956D14077
:100C3000C559DE4FB983A883CB56D140C359DE4F87
:100C4000F982E882CD56D140C159DE4FF983E8835D
:100C5000CF56D140C957DE4FD982C882C758D1403C
:100C6000C757DE4F79836883C958D140C557DE4FD7
:100C7000B983A883CB58D140C357DE4FF982E882AD
:100C8000CD58D140C157DE4F39832883CF58D1404A
:100C9000CB55DE4F59834883C55AD140C955DE4FE5
:100CA000B983A883C75AD140C755DE4FF982E8827D
:100CB000C95AD140C555DE4FF983E883CB5AD1409C
:100CC000C355DE4F39832883CD5AD140CD53DE4FF3
:100CD00059834883C35CD140CB53DE4FF982E8820D
:100CE000C55CD140C953DE4FF983E883C75CD1406E
:100CF000C753DE4F39832883C95CD1402EE1289F3A
:100D00006001299FD00C1124F12CE12CF701EE0F8A
:100D1000FF1FEC0DFD1DE00FF11F61E080810E94BF
:100D2000D7015FEFE51AF50A8FE0E816F10471F7D5
:100D3000C052DE4F0FB6F894DEBF0FBECDBFDF91BD
:100D4000CF911F910F91FF90EF90DF90CF9008957A
:100D5000CF93DF938091310290913202019709F095
:100D600046C088E090E02091330230913402213077
:100D7000310509F404962091350230913602213074
:100D8000310509F402962091370230913802213062
:100D9000310509F401962091390230913A02C8E0F8
:100DA000D0E02130310511F0D0E0C0E020913B02CD
:100DB00030913C022130310509F4249620913D0206
:100DC00030913E022130310509F4229620913F02F4
:100DD000309140022130310509F421960E94CC0265
:100DE000CE010E94BA04DF91CF910C947A0290E078
:100DF00080E0B9CF0F931F93CF93DF9300D000D043
:100E00001F921F92CDB7DEB788E0E0E0F2E0DE018E
:100E1000119601900D928A95E1F7E3E4F2E030E05B
:100E200020E090E080E0419151914130510551F432
:100E3000A1E0B0E0AC0FBD1FA20FB31F4D915C91BC
:100E4000840F951F2E5F3F4F2830310561F7EBE48B
:100E5000F2E030E020E010E000E0419151914130BB
:100E6000510551F4A1E0B0E0AC0FBD1FA20FB31FBC
:100E70004D915C91040F151F2E5F3F4F28303105B7
:100E800061F70E94CC02C8010E94BA0428960FB6EE
:100E9000F894DEBF0FBECDBFDF91CF911F910F91B0
:100EA0000C947A02EF92FF920F931F93CF93DF93EC
:100EB000E1E3F2E027E030E090E080E04191519101
:100EC0004130510541F4022E02C0440F551F0A94CF
:100ED000E2F7840F951F2150310980F764E670E036
:100EE0000E944F09EC010AE010E0B8010E944F098E
:100EF0007C010E94BA04CE018E199F09B8010E949C
:100F00004F09CB010E94CC02DF91CF911F910F912D
:100F1000FF90EF900C947A021F920F920FB60F92EF
:100F200011242F933F938F939F93AF93BF938091FF
:100F3000290290912A02A0912B02B0912C023091AB
:100F4000280223E0230F2D3758F50196A11DB11D6E
:100F5000209328028093290290932A02A0932B02C7
:100F6000B0932C0280912D0290912E02A0912F021D
:100F7000B09130020196A11DB11D80932D02909376
:100F80002E02A0932F02B0933002BF91AF919F9198
:100F90008F913F912F910F900FBE0F901F9018953A
:100FA00026E8230F0296A11DB11DD2CF789484B5F7
:100FB000826084BD84B5816084BD85B5826085BD55
:100FC00085B5816085BD80916E00816080936E00E3
:100FD00010928100809181008260809381008091D5
:100FE0008100816080938100809180008160809386
:100FF00080008091B10084608093B1008091B00046
:1010000081608093B0008091910082608093910014
:101010008091910081608093910080919000816027
:10102000809390008091A10082608093A1008091C4
:10103000A10081608093A1008091A00081608093D5
:10104000A000809121018260809321018091210183
:101050008160809321018091200181608093200133
:1010600080917A00846080937A0080917A00826017
:1010700080937A0080917A00816080937A008091D9
:101080007A00806880937A001092C100C8E1D2E0B3
:1010900008E012E08881229661E00E940502F801D2
:1010A00080810E5F1F4F61E00E940502F2E0C832AE
:1010B000DF0781F7C0E061E08C2F0E94D701CF5F8E
:1010C000C830C9F760E08FE10E94050260E081E26C
:1010D0000E94050260E083E20E94050261E08FE168
:1010E0000E94D70161E081E20E94D70161E083E2C2
:1010F0000E94D701AA24A394B12C94E6892E912CA6
:101100002AE0E22EF12C30E0C32E30E0D32E03E4AF
:1011100012E0E801712C872D0E94AE01892B49F560
:10112000B982A8827394229628E07212F4CF8FE1DC
:101130000E94AE01C4E0D0E0892B11F0D0E0C0E005
:1011400081E20E94AE01892B09F4229683E20E947B
:10115000AE01892B89F42196C130D105B9F50E94E1
:101160005B020E945207C114D10489F20E94000060
:10117000CECF19821882D6CF209771F782E1E3E4AF
:10118000F2E0A1E3B2E001900D928A95E1F70E94AE
:101190005207279741F72091490230914A022115C1
:1011A000310509F06CC090E080E0F8014085518580
:1011B0004130510531F401960250110985309105F5
:1011C000A1F7820F931F0E94BA044AC0C230D10512
:1011D00061F482E1E3E4F2E0A1E3B2E001900D9278
:1011E0008A95E1F70E94A806BECFC330D10519F455
:1011F0000E945B02F7CFC430D10519F40E94FA06B1
:10120000B2CFC530D105D1F3C630D10511F620914A
:10121000490230914A02EDE4F2E090E080E02115CD
:10122000310509F5529142914130510509F4019679
:101230000E171F07B9F7820F931FB4010E944F09C1
:10124000EC01B7010E944F098C010E94BA04CE0143
:10125000801B910BB7010E944F09CB010E94CC0269
:101260000E947A0280CF32912291232B09F40196B9
:1012700022E0E334F207B9F723E030E0DCCFEDE41D
:10128000F2E090E080E032912291232B09F4019664
:1012900022E0E334F207B9F723E030E092CF97FB86
:1012A000072E16F4009407D077FD09D00E946B0931
:1012B00007FC05D03EF4909581959F4F0895709559
:1012C00061957F4F0895EE0FFF1F881F8BBF07901A
:1012D000F691E02D1994AA1BBB1B51E107C0AA1F70
:1012E000BB1FA617B70710F0A61BB70B881F991FC7
:1012F0005A95A9F780959095BC01CD010895F89471
:02130000FFCF1D
:1013020002000400020001003D003C003B003A00E4
:1013120039003800370036004500440043004200DF
:08132200410040003F003E00C5
:00000001FF
